{
  "_format": "hh-sol-artifact-1",
  "contractName": "RegistrationVerifier",
  "sourceName": "contracts/Verifiers/RegistrationVerifier.sol",
  "abi": [
    {
      "inputs": [
        {
          "internalType": "uint256[2]",
          "name": "a",
          "type": "uint256[2]"
        },
        {
          "internalType": "uint256[2][2]",
          "name": "b",
          "type": "uint256[2][2]"
        },
        {
          "internalType": "uint256[2]",
          "name": "c",
          "type": "uint256[2]"
        },
        {
          "internalType": "uint256[]",
          "name": "input",
          "type": "uint256[]"
        }
      ],
      "name": "verifyProof",
      "outputs": [
        {
          "internalType": "bool",
          "name": "r",
          "type": "bool"
        }
      ],
      "stateMutability": "view",
      "type": "function"
    }
  ],
  "bytecode": "0x608060405234801561001057600080fd5b50611bc6806100206000396000f3fe608060405234801561001057600080fd5b506004361061002b5760003560e01c8063c32e370e14610030575b600080fd5b61004a6004803603810190610045919061168c565b610060565b604051610057919061172c565b60405180910390f35b600061006a611245565b60405180604001604052808760006002811061008957610088611747565b5b60200201518152602001876001600281106100a7576100a6611747565b5b6020020151815250816000018190525060405180604001604052806040518060400160405280886000600281106100e1576100e0611747565b5b60200201516000600281106100f9576100f8611747565b5b602002015181526020018860006002811061011757610116611747565b5b602002015160016002811061012f5761012e611747565b5b6020020151815250815260200160405180604001604052808860016002811061015b5761015a611747565b5b602002015160006002811061017357610172611747565b5b602002015181526020018860016002811061019157610190611747565b5b60200201516001600281106101a9576101a8611747565b5b602002015181525081525081602001819052506040518060400160405280856000600281106101db576101da611747565b5b60200201518152602001856001600281106101f9576101f8611747565b5b602002015181525081604001819052506000835167ffffffffffffffff811115610226576102256113b1565b5b6040519080825280602002602001820160405280156102545781602001602082028036833780820191505090505b50905060005b84518110156102b05784818151811061027657610275611747565b5b602002602001015182828151811061029157610290611747565b5b60200260200101818152505080806102a8906117a5565b91505061025a565b5060006102bd82846102dc565b036102cd576001925050506102d4565b6000925050505b949350505050565b6000807f30644e72e131a029b85045b68181585d2833e84879b9709143e1f593f00000019050600061030c6104cf565b90508060800151516001865161032291906117ed565b14610362576040517f08c379a00000000000000000000000000000000000000000000000000000000081526004016103599061187e565b60405180910390fd5b60006040518060400160405280600081526020016000815250905060005b8651811015610451578387828151811061039d5761039c611747565b5b6020026020010151106103e5576040517f08c379a00000000000000000000000000000000000000000000000000000000081526004016103dc906118ea565b60405180910390fd5b61043c8261043785608001516001856103fe91906117ed565b8151811061040f5761040e611747565b5b60200260200101518a858151811061042a57610429611747565b5b6020026020010151610a3b565b610b13565b91508080610449906117a5565b915050610380565b5061047b81836080015160008151811061046e5761046d611747565b5b6020026020010151610b13565b90506104b161048d8660000151610c11565b8660200151846000015185602001518587604001518b604001518960600151610cb6565b6104c157600193505050506104c9565b600093505050505b92915050565b6104d7611278565b60405180604001604052807f0d341279e170f2cb86330aa7975e1a517c641563e5e307a268d5bce77b2cc61281526020017f1e5f3463ae9b56d97c67c582e4b71f323a92b324f0c4879704552b7c0a0192828152508160000181905250604051806040016040528060405180604001604052807f078b9eeee55e2dcdfd956214c1a5a46551f16db5c2befafe8f58cb380b630afa81526020017f14f66f481edb001cb7e47ddd22026856b8aacd5360e8e3b34cdc6599977d4fe2815250815260200160405180604001604052807f03ccdc20002555d635e3c7e652863cd28bdb85bcddb05352da2a75c741a9d14c81526020017f15806ef9ad7dfd56f37f1fc3620b3f75c37bd2cadac8c4583726d2187fd1820e8152508152508160200181905250604051806040016040528060405180604001604052807f198e9393920d483a7260bfb731fb5d25f1aa493335a9e71297e485b7aef312c281526020017f1800deef121f1e76426a00665e5c4479674322d4f75edadd46debd5cd992f6ed815250815260200160405180604001604052807f090689d0585ff075ec9e99ad690c3395bc4b313370b38ef355acdadcd122975b81526020017f12c85ea5db8c6deb4aab71808dcb408fe3d1e7690c43d37b4ce6cc0166fa7daa8152508152508160400181905250604051806040016040528060405180604001604052807f1815c0c06ac1b3ace504d980fe3d4f85f4fbd8738f5d2df8ecae7b552bccf0e481526020017f0d7a182532db10c7b482eefd882410511e9d5884dc37be92fba6049aa632602f815250815260200160405180604001604052807f02895f8398ad5104fefbf704680d66cd65ee31d532cd18627fbbbe7235289df081526020017f215eaacc5fa72739fda5cf4254bd77511314ebab1719f1b5b2b244e1f31509998152508152508160600181905250600567ffffffffffffffff81111561079e5761079d6113b1565b5b6040519080825280602002602001820160405280156107d757816020015b6107c46112bf565b8152602001906001900390816107bc5790505b50816080018190525060405180604001604052807f23a54e639f0b2994756e30d705386dd0ebbfec56294d7d6856244273df24422081526020017f2abb5579466273d75ee844c91338fecb034635c41dcd068406b9e9c1e378cea0815250816080015160008151811061084d5761084c611747565b5b602002602001018190525060405180604001604052807f0104dd1ee753cbc254383ce70868362a64b98db258085c7b0549c0d4da00db7781526020017f01b33626d76876685f18cb5b53373d22dd2a539732a6c91d96bbb9f7c687c37081525081608001516001815181106108c5576108c4611747565b5b602002602001018190525060405180604001604052807f1bbaab1c231fab3b608c2b48692f99e53501b57d4567f10d9c93432098d5c58981526020017f1deefca589101c5504d33011abd00def436c23a1c35004c74ada481015fe2ace815250816080015160028151811061093d5761093c611747565b5b602002602001018190525060405180604001604052807f0c9885d1f672f8427cecb7f62b8f6b2bc5fe16f7b80809a901085f0270b1a25781526020017f22a82d0871d5c5584b721c03e5f2f634427330d7aa63c20c4b0b444c1d1fdbcf81525081608001516003815181106109b5576109b4611747565b5b602002602001018190525060405180604001604052807f1dfc8718d5277ec5f05a90cd92f4e94f977a6236af8c536002151535bff7a75981526020017f2cf7075f8b3f791ca84d9f4e93b4288781ce0b0d42b537a4b538afc5793cc4e28152508160800151600481518110610a2d57610a2c611747565b5b602002602001018190525090565b610a436112bf565b610a4b6112d9565b836000015181600060038110610a6457610a63611747565b5b602002018181525050836020015181600160038110610a8657610a85611747565b5b6020020181815250508281600260038110610aa457610aa3611747565b5b602002018181525050600060608360808460076107d05a03fa90508060008103610aca57fe5b5080610b0b576040517f08c379a0000000000000000000000000000000000000000000000000000000008152600401610b0290611956565b60405180910390fd5b505092915050565b610b1b6112bf565b610b236112fb565b836000015181600060048110610b3c57610b3b611747565b5b602002018181525050836020015181600160048110610b5e57610b5d611747565b5b602002018181525050826000015181600260048110610b8057610b7f611747565b5b602002018181525050826020015181600360048110610ba257610ba1611747565b5b602002018181525050600060608360c08460066107d05a03fa90508060008103610bc857fe5b5080610c09576040517f08c379a0000000000000000000000000000000000000000000000000000000008152600401610c00906119c2565b60405180910390fd5b505092915050565b610c196112bf565b60007f30644e72e131a029b85045b68181585d97816a916871ca8d3c208c16d87cfd47905060008360000151148015610c56575060008360200151145b15610c7a576040518060400160405280600081526020016000815250915050610cb1565b604051806040016040528084600001518152602001828560200151610c9f9190611a11565b83610caa9190611a42565b8152509150505b919050565b600080600467ffffffffffffffff811115610cd457610cd36113b1565b5b604051908082528060200260200182016040528015610d0d57816020015b610cfa6112bf565b815260200190600190039081610cf25790505b5090506000600467ffffffffffffffff811115610d2d57610d2c6113b1565b5b604051908082528060200260200182016040528015610d6657816020015b610d5361131d565b815260200190600190039081610d4b5790505b5090508a82600081518110610d7e57610d7d611747565b5b60200260200101819052508882600181518110610d9e57610d9d611747565b5b60200260200101819052508682600281518110610dbe57610dbd611747565b5b60200260200101819052508482600381518110610dde57610ddd611747565b5b60200260200101819052508981600081518110610dfe57610dfd611747565b5b60200260200101819052508781600181518110610e1e57610e1d611747565b5b60200260200101819052508581600281518110610e3e57610e3d611747565b5b60200260200101819052508381600381518110610e5e57610e5d611747565b5b6020026020010181905250610e738282610e83565b9250505098975050505050505050565b60008151835114610ec9576040517f08c379a0000000000000000000000000000000000000000000000000000000008152600401610ec090611ac2565b60405180910390fd5b6000835190506000600682610ede9190611ae2565b905060008167ffffffffffffffff811115610efc57610efb6113b1565b5b604051908082528060200260200182016040528015610f2a5781602001602082028036833780820191505090505b50905060005b838110156111af57868181518110610f4b57610f4a611747565b5b602002602001015160000151826000600684610f679190611ae2565b610f7191906117ed565b81518110610f8257610f81611747565b5b602002602001018181525050868181518110610fa157610fa0611747565b5b602002602001015160200151826001600684610fbd9190611ae2565b610fc791906117ed565b81518110610fd857610fd7611747565b5b602002602001018181525050858181518110610ff757610ff6611747565b5b60200260200101516000015160006002811061101657611015611747565b5b602002015182600260068461102b9190611ae2565b61103591906117ed565b8151811061104657611045611747565b5b60200260200101818152505085818151811061106557611064611747565b5b60200260200101516000015160016002811061108457611083611747565b5b60200201518260036006846110999190611ae2565b6110a391906117ed565b815181106110b4576110b3611747565b5b6020026020010181815250508581815181106110d3576110d2611747565b5b6020026020010151602001516000600281106110f2576110f1611747565b5b60200201518260046006846111079190611ae2565b61111191906117ed565b8151811061112257611121611747565b5b60200260200101818152505085818151811061114157611140611747565b5b6020026020010151602001516001600281106111605761115f611747565b5b60200201518260056006846111759190611ae2565b61117f91906117ed565b815181106111905761118f611747565b5b60200260200101818152505080806111a7906117a5565b915050610f30565b506111b8611343565b6000602082602086026020860160086107d05a03fa905080600081036111da57fe5b508061121b576040517f08c379a000000000000000000000000000000000000000000000000000000000815260040161121290611b70565b60405180910390fd5b60008260006001811061123157611230611747565b5b602002015114159550505050505092915050565b60405180606001604052806112586112bf565b815260200161126561131d565b81526020016112726112bf565b81525090565b6040518060a0016040528061128b6112bf565b815260200161129861131d565b81526020016112a561131d565b81526020016112b261131d565b8152602001606081525090565b604051806040016040528060008152602001600081525090565b6040518060600160405280600390602082028036833780820191505090505090565b6040518060800160405280600490602082028036833780820191505090505090565b6040518060400160405280611330611365565b815260200161133d611365565b81525090565b6040518060200160405280600190602082028036833780820191505090505090565b6040518060400160405280600290602082028036833780820191505090505090565b6000604051905090565b600080fd5b600080fd5b600080fd5b6000601f19601f8301169050919050565b7f4e487b7100000000000000000000000000000000000000000000000000000000600052604160045260246000fd5b6113e9826113a0565b810181811067ffffffffffffffff82111715611408576114076113b1565b5b80604052505050565b600061141b611387565b905061142782826113e0565b919050565b600067ffffffffffffffff821115611447576114466113b1565b5b602082029050919050565b600080fd5b6000819050919050565b61146a81611457565b811461147557600080fd5b50565b60008135905061148781611461565b92915050565b60006114a061149b8461142c565b611411565b905080602084028301858111156114ba576114b9611452565b5b835b818110156114e357806114cf8882611478565b8452602084019350506020810190506114bc565b5050509392505050565b600082601f8301126115025761150161139b565b5b600261150f84828561148d565b91505092915050565b600067ffffffffffffffff821115611533576115326113b1565b5b602082029050919050565b600061155161154c84611518565b611411565b9050806040840283018581111561156b5761156a611452565b5b835b81811015611594578061158088826114ed565b84526020840193505060408101905061156d565b5050509392505050565b600082601f8301126115b3576115b261139b565b5b60026115c084828561153e565b91505092915050565b600067ffffffffffffffff8211156115e4576115e36113b1565b5b602082029050602081019050919050565b6000611608611603846115c9565b611411565b9050808382526020820190506020840283018581111561162b5761162a611452565b5b835b8181101561165457806116408882611478565b84526020840193505060208101905061162d565b5050509392505050565b600082601f8301126116735761167261139b565b5b81356116838482602086016115f5565b91505092915050565b60008060008061012085870312156116a7576116a6611391565b5b60006116b5878288016114ed565b94505060406116c68782880161159e565b93505060c06116d7878288016114ed565b92505061010085013567ffffffffffffffff8111156116f9576116f8611396565b5b6117058782880161165e565b91505092959194509250565b60008115159050919050565b61172681611711565b82525050565b6000602082019050611741600083018461171d565b92915050565b7f4e487b7100000000000000000000000000000000000000000000000000000000600052603260045260246000fd5b7f4e487b7100000000000000000000000000000000000000000000000000000000600052601160045260246000fd5b60006117b082611457565b91507fffffffffffffffffffffffffffffffffffffffffffffffffffffffffffffffff82036117e2576117e1611776565b5b600182019050919050565b60006117f882611457565b915061180383611457565b925082820190508082111561181b5761181a611776565b5b92915050565b600082825260208201905092915050565b7f76657269666965722d6261642d696e7075740000000000000000000000000000600082015250565b6000611868601283611821565b915061187382611832565b602082019050919050565b600060208201905081810360008301526118978161185b565b9050919050565b7f76657269666965722d6774652d736e61726b2d7363616c61722d6669656c6400600082015250565b60006118d4601f83611821565b91506118df8261189e565b602082019050919050565b60006020820190508181036000830152611903816118c7565b9050919050565b7f70616972696e672d6d756c2d6661696c65640000000000000000000000000000600082015250565b6000611940601283611821565b915061194b8261190a565b602082019050919050565b6000602082019050818103600083015261196f81611933565b9050919050565b7f70616972696e672d6164642d6661696c65640000000000000000000000000000600082015250565b60006119ac601283611821565b91506119b782611976565b602082019050919050565b600060208201905081810360008301526119db8161199f565b9050919050565b7f4e487b7100000000000000000000000000000000000000000000000000000000600052601260045260246000fd5b6000611a1c82611457565b9150611a2783611457565b925082611a3757611a366119e2565b5b828206905092915050565b6000611a4d82611457565b9150611a5883611457565b9250828203905081811115611a7057611a6f611776565b5b92915050565b7f70616972696e672d6c656e677468732d6661696c656400000000000000000000600082015250565b6000611aac601683611821565b9150611ab782611a76565b602082019050919050565b60006020820190508181036000830152611adb81611a9f565b9050919050565b6000611aed82611457565b9150611af883611457565b9250828202611b0681611457565b91508282048414831517611b1d57611b1c611776565b5b5092915050565b7f70616972696e672d6f70636f64652d6661696c65640000000000000000000000600082015250565b6000611b5a601583611821565b9150611b6582611b24565b602082019050919050565b60006020820190508181036000830152611b8981611b4d565b905091905056fea26469706673582212209cfbc433baac71bd4cd758586aec4bbea674ba80b585a4b3a97c2382afdde27564736f6c63430008120033",
  "linkReferences": {},
  "deployedLinkReferences": {}
}