{
  "_format": "hh-sol-artifact-1",
  "contractName": "zkToken",
  "sourceName": "contracts/zkToken.sol",
  "abi": [
    {
      "inputs": [
        {
          "internalType": "address",
          "name": "_transferVerifieqAddr",
          "type": "address"
        },
        {
          "internalType": "address",
          "name": "_registrationVerifierAddr",
          "type": "address"
        },
        {
          "internalType": "address",
          "name": "_mintVerifierAddr",
          "type": "address"
        }
      ],
      "stateMutability": "nonpayable",
      "type": "constructor"
    },
    {
      "inputs": [
        {
          "internalType": "string",
          "name": "_error",
          "type": "string"
        }
      ],
      "name": "WrongProof",
      "type": "error"
    },
    {
      "anonymous": false,
      "inputs": [
        {
          "indexed": true,
          "internalType": "address",
          "name": "_to",
          "type": "address"
        }
      ],
      "name": "Mint",
      "type": "event"
    },
    {
      "anonymous": false,
      "inputs": [
        {
          "indexed": true,
          "internalType": "address",
          "name": "_who",
          "type": "address"
        }
      ],
      "name": "Registration",
      "type": "event"
    },
    {
      "anonymous": false,
      "inputs": [
        {
          "indexed": true,
          "internalType": "address",
          "name": "_to",
          "type": "address"
        }
      ],
      "name": "Transfer",
      "type": "event"
    },
    {
      "inputs": [
        {
          "internalType": "address",
          "name": "_to",
          "type": "address"
        }
      ],
      "name": "balanceOf",
      "outputs": [
        {
          "internalType": "uint256",
          "name": "",
          "type": "uint256"
        }
      ],
      "stateMutability": "view",
      "type": "function"
    },
    {
      "inputs": [],
      "name": "decimals",
      "outputs": [
        {
          "internalType": "uint256",
          "name": "",
          "type": "uint256"
        }
      ],
      "stateMutability": "view",
      "type": "function"
    },
    {
      "inputs": [
        {
          "internalType": "address",
          "name": "_to",
          "type": "address"
        }
      ],
      "name": "getPubKey",
      "outputs": [
        {
          "components": [
            {
              "internalType": "uint256",
              "name": "g",
              "type": "uint256"
            },
            {
              "internalType": "uint256",
              "name": "n",
              "type": "uint256"
            },
            {
              "internalType": "uint256",
              "name": "powN2",
              "type": "uint256"
            }
          ],
          "internalType": "struct zkToken.Key",
          "name": "",
          "type": "tuple"
        }
      ],
      "stateMutability": "view",
      "type": "function"
    },
    {
      "inputs": [
        {
          "internalType": "address",
          "name": "_to",
          "type": "address"
        },
        {
          "internalType": "uint256[2]",
          "name": "a",
          "type": "uint256[2]"
        },
        {
          "internalType": "uint256[2][2]",
          "name": "b",
          "type": "uint256[2][2]"
        },
        {
          "internalType": "uint256[2]",
          "name": "c",
          "type": "uint256[2]"
        },
        {
          "internalType": "uint256[]",
          "name": "input",
          "type": "uint256[]"
        }
      ],
      "name": "mint",
      "outputs": [],
      "stateMutability": "nonpayable",
      "type": "function"
    },
    {
      "inputs": [],
      "name": "name",
      "outputs": [
        {
          "internalType": "string",
          "name": "",
          "type": "string"
        }
      ],
      "stateMutability": "view",
      "type": "function"
    },
    {
      "inputs": [
        {
          "internalType": "uint256[2]",
          "name": "a",
          "type": "uint256[2]"
        },
        {
          "internalType": "uint256[2][2]",
          "name": "b",
          "type": "uint256[2][2]"
        },
        {
          "internalType": "uint256[2]",
          "name": "c",
          "type": "uint256[2]"
        },
        {
          "internalType": "uint256[]",
          "name": "input",
          "type": "uint256[]"
        }
      ],
      "name": "registration",
      "outputs": [],
      "stateMutability": "payable",
      "type": "function"
    },
    {
      "inputs": [],
      "name": "symbol",
      "outputs": [
        {
          "internalType": "string",
          "name": "",
          "type": "string"
        }
      ],
      "stateMutability": "view",
      "type": "function"
    },
    {
      "inputs": [
        {
          "internalType": "address",
          "name": "_to",
          "type": "address"
        },
        {
          "internalType": "uint256[2]",
          "name": "a",
          "type": "uint256[2]"
        },
        {
          "internalType": "uint256[2][2]",
          "name": "b",
          "type": "uint256[2][2]"
        },
        {
          "internalType": "uint256[2]",
          "name": "c",
          "type": "uint256[2]"
        },
        {
          "internalType": "uint256[]",
          "name": "input",
          "type": "uint256[]"
        }
      ],
      "name": "transfer",
      "outputs": [],
      "stateMutability": "payable",
      "type": "function"
    }
  ],
  "bytecode": "0x60806040526040518060400160405280600781526020017f7a6b546f6b656e00000000000000000000000000000000000000000000000000815250600090816200004a919062000410565b506040518060400160405280600381526020017f5a4b5400000000000000000000000000000000000000000000000000000000008152506001908162000091919062000410565b506000600255348015620000a457600080fd5b506040516200206b3803806200206b8339818101604052810190620000ca919062000561565b82600360006101000a81548173ffffffffffffffffffffffffffffffffffffffff021916908373ffffffffffffffffffffffffffffffffffffffff16021790555081600460006101000a81548173ffffffffffffffffffffffffffffffffffffffff021916908373ffffffffffffffffffffffffffffffffffffffff16021790555080600560006101000a81548173ffffffffffffffffffffffffffffffffffffffff021916908373ffffffffffffffffffffffffffffffffffffffff160217905550505050620005bd565b600081519050919050565b7f4e487b7100000000000000000000000000000000000000000000000000000000600052604160045260246000fd5b7f4e487b7100000000000000000000000000000000000000000000000000000000600052602260045260246000fd5b600060028204905060018216806200021857607f821691505b6020821081036200022e576200022d620001d0565b5b50919050565b60008190508160005260206000209050919050565b60006020601f8301049050919050565b600082821b905092915050565b600060088302620002987fffffffffffffffffffffffffffffffffffffffffffffffffffffffffffffffff8262000259565b620002a4868362000259565b95508019841693508086168417925050509392505050565b6000819050919050565b6000819050919050565b6000620002f1620002eb620002e584620002bc565b620002c6565b620002bc565b9050919050565b6000819050919050565b6200030d83620002d0565b620003256200031c82620002f8565b84845462000266565b825550505050565b600090565b6200033c6200032d565b6200034981848462000302565b505050565b5b8181101562000371576200036560008262000332565b6001810190506200034f565b5050565b601f821115620003c0576200038a8162000234565b620003958462000249565b81016020851015620003a5578190505b620003bd620003b48562000249565b8301826200034e565b50505b505050565b600082821c905092915050565b6000620003e560001984600802620003c5565b1980831691505092915050565b6000620004008383620003d2565b9150826002028217905092915050565b6200041b8262000196565b67ffffffffffffffff811115620004375762000436620001a1565b5b620004438254620001ff565b6200045082828562000375565b600060209050601f83116001811462000488576000841562000473578287015190505b6200047f8582620003f2565b865550620004ef565b601f198416620004988662000234565b60005b82811015620004c2578489015182556001820191506020850194506020810190506200049b565b86831015620004e25784890151620004de601f891682620003d2565b8355505b6001600288020188555050505b505050505050565b600080fd5b600073ffffffffffffffffffffffffffffffffffffffff82169050919050565b60006200052982620004fc565b9050919050565b6200053b816200051c565b81146200054757600080fd5b50565b6000815190506200055b8162000530565b92915050565b6000806000606084860312156200057d576200057c620004f7565b5b60006200058d868287016200054a565b9350506020620005a0868287016200054a565b9250506040620005b3868287016200054a565b9150509250925092565b611a9e80620005cd6000396000f3fe6080604052600436106100705760003560e01c806370a082311161004e57806370a08231146100e75780638af442291461012457806395d89b4114610140578063edd723dc1461016b57610070565b806306fdde0314610075578063313ce567146100a05780633debc11b146100cb575b600080fd5b34801561008157600080fd5b5061008a610194565b6040516100979190610e7e565b60405180910390f35b3480156100ac57600080fd5b506100b5610222565b6040516100c29190610eb9565b60405180910390f35b6100e560048036038101906100e091906111be565b610228565b005b3480156100f357600080fd5b5061010e600480360381019061010991906112a1565b610570565b60405161011b9190610eb9565b60405180910390f35b61013e600480360381019061013991906112ce565b6105bc565b005b34801561014c57600080fd5b50610155610a6b565b6040516101629190610e7e565b60405180910390f35b34801561017757600080fd5b50610192600480360381019061018d91906112ce565b610af9565b005b600080546101a190611396565b80601f01602080910402602001604051908101604052809291908181526020018280546101cd90611396565b801561021a5780601f106101ef5761010080835404028352916020019161021a565b820191906000526020600020905b8154815290600101906020018083116101fd57829003601f168201915b505050505081565b60025481565b60008160008151811061023e5761023d6113c7565b5b60200260200101511015610287576040517f08c379a000000000000000000000000000000000000000000000000000000000815260040161027e90611442565b60405180910390fd5b60008160018151811061029d5761029c6113c7565b5b6020026020010151101580156102cf57506000816003815181106102c4576102c36113c7565b5b602002602001015110155b61030e576040517f08c379a0000000000000000000000000000000000000000000000000000000008152600401610305906114ae565b60405180910390fd5b6000600460009054906101000a900473ffffffffffffffffffffffffffffffffffffffff1673ffffffffffffffffffffffffffffffffffffffff1663c32e370e868686866040518563ffffffff1660e01b8152600401610371949392919061170e565b602060405180830381865afa15801561038e573d6000803e3d6000fd5b505050506040513d601f19601f820116820180604052508101906103b29190611794565b9050801561052e57816000815181106103ce576103cd6113c7565b5b6020026020010151600660003373ffffffffffffffffffffffffffffffffffffffff1673ffffffffffffffffffffffffffffffffffffffff16815260200190815260200160002060000181905550816001815181106104305761042f6113c7565b5b6020026020010151600660003373ffffffffffffffffffffffffffffffffffffffff1673ffffffffffffffffffffffffffffffffffffffff1681526020019081526020016000206001016000018190555081600381518110610495576104946113c7565b5b6020026020010151600660003373ffffffffffffffffffffffffffffffffffffffff1673ffffffffffffffffffffffffffffffffffffffff168152602001908152602001600020600101600101819055503373ffffffffffffffffffffffffffffffffffffffff167f478f5152d8fc568db3f8de9fb402fd9d98a1a7541ecfe434e59cf574fbfc552460405160405180910390a2610569565b6040517f958bb82f0000000000000000000000000000000000000000000000000000000081526004016105609061180d565b60405180910390fd5b5050505050565b6000600660008373ffffffffffffffffffffffffffffffffffffffff1673ffffffffffffffffffffffffffffffffffffffff168152602001908152602001600020600001549050919050565b8473ffffffffffffffffffffffffffffffffffffffff163373ffffffffffffffffffffffffffffffffffffffff160361062a576040517f08c379a00000000000000000000000000000000000000000000000000000000081526004016106219061189f565b60405180910390fd5b600073ffffffffffffffffffffffffffffffffffffffff168573ffffffffffffffffffffffffffffffffffffffff1603610699576040517f08c379a00000000000000000000000000000000000000000000000000000000081526004016106909061190b565b60405180910390fd5b6000600660008773ffffffffffffffffffffffffffffffffffffffff1673ffffffffffffffffffffffffffffffffffffffff16815260200190815260200160002090506000816000015403610723576040517f08c379a000000000000000000000000000000000000000000000000000000000815260040161071a90611977565b60405180910390fd5b600081600101600001541015801561074357506000816001016001015410155b610782576040517f08c379a0000000000000000000000000000000000000000000000000000000008152600401610779906114ae565b60405180910390fd5b6000600360009054906101000a900473ffffffffffffffffffffffffffffffffffffffff1673ffffffffffffffffffffffffffffffffffffffff1663c32e370e878787876040518563ffffffff1660e01b81526004016107e5949392919061170e565b602060405180830381865afa158015610802573d6000803e3d6000fd5b505050506040513d601f19601f820116820180604052508101906108269190611794565b90508015610a2757600660008873ffffffffffffffffffffffffffffffffffffffff1673ffffffffffffffffffffffffffffffffffffffff16815260200190815260200160002060010160010154600660008973ffffffffffffffffffffffffffffffffffffffff1673ffffffffffffffffffffffffffffffffffffffff168152602001908152602001600020600101600101546108c491906119c6565b836001815181106108d8576108d76113c7565b5b6020026020010151600660008a73ffffffffffffffffffffffffffffffffffffffff1673ffffffffffffffffffffffffffffffffffffffff1681526020019081526020016000206000015461092d91906119c6565b6109379190611a37565b600660008973ffffffffffffffffffffffffffffffffffffffff1673ffffffffffffffffffffffffffffffffffffffff1681526020019081526020016000206000018190555082600281518110610991576109906113c7565b5b6020026020010151600660003373ffffffffffffffffffffffffffffffffffffffff1673ffffffffffffffffffffffffffffffffffffffff168152602001908152602001600020600001819055508673ffffffffffffffffffffffffffffffffffffffff167f2d339b1e3334d3f43e7aa6d5b1fa3ca5e4228b2dd547d1710c726019d98e53fa60405160405180910390a2610a62565b6040517f958bb82f000000000000000000000000000000000000000000000000000000008152600401610a599061180d565b60405180910390fd5b50505050505050565b60018054610a7890611396565b80601f0160208091040260200160405190810160405280929190818152602001828054610aa490611396565b8015610af15780601f10610ac657610100808354040283529160200191610af1565b820191906000526020600020905b815481529060010190602001808311610ad457829003601f168201915b505050505081565b600073ffffffffffffffffffffffffffffffffffffffff168573ffffffffffffffffffffffffffffffffffffffff1603610b68576040517f08c379a0000000000000000000000000000000000000000000000000000000008152600401610b5f9061190b565b60405180910390fd5b6000600560009054906101000a900473ffffffffffffffffffffffffffffffffffffffff1673ffffffffffffffffffffffffffffffffffffffff1663c32e370e868686866040518563ffffffff1660e01b8152600401610bcb949392919061170e565b602060405180830381865afa158015610be8573d6000803e3d6000fd5b505050506040513d601f19601f82011682018060405250810190610c0c9190611794565b90508015610dab57600660008773ffffffffffffffffffffffffffffffffffffffff1673ffffffffffffffffffffffffffffffffffffffff16815260200190815260200160002060010160010154600660008873ffffffffffffffffffffffffffffffffffffffff1673ffffffffffffffffffffffffffffffffffffffff16815260200190815260200160002060010160010154610caa91906119c6565b82600081518110610cbe57610cbd6113c7565b5b6020026020010151600660008973ffffffffffffffffffffffffffffffffffffffff1673ffffffffffffffffffffffffffffffffffffffff16815260200190815260200160002060000154610d1391906119c6565b610d1d9190611a37565b600660008873ffffffffffffffffffffffffffffffffffffffff1673ffffffffffffffffffffffffffffffffffffffff168152602001908152602001600020600001819055508573ffffffffffffffffffffffffffffffffffffffff167f3c3284d117c92d0b1699230960384e794dcba184cc48ff114fe4fed20c9b056560405160405180910390a2610de6565b6040517f958bb82f000000000000000000000000000000000000000000000000000000008152600401610ddd9061180d565b60405180910390fd5b505050505050565b600081519050919050565b600082825260208201905092915050565b60005b83811015610e28578082015181840152602081019050610e0d565b60008484015250505050565b6000601f19601f8301169050919050565b6000610e5082610dee565b610e5a8185610df9565b9350610e6a818560208601610e0a565b610e7381610e34565b840191505092915050565b60006020820190508181036000830152610e988184610e45565b905092915050565b6000819050919050565b610eb381610ea0565b82525050565b6000602082019050610ece6000830184610eaa565b92915050565b6000604051905090565b600080fd5b600080fd5b600080fd5b7f4e487b7100000000000000000000000000000000000000000000000000000000600052604160045260246000fd5b610f2582610e34565b810181811067ffffffffffffffff82111715610f4457610f43610eed565b5b80604052505050565b6000610f57610ed4565b9050610f638282610f1c565b919050565b600067ffffffffffffffff821115610f8357610f82610eed565b5b602082029050919050565b600080fd5b610f9c81610ea0565b8114610fa757600080fd5b50565b600081359050610fb981610f93565b92915050565b6000610fd2610fcd84610f68565b610f4d565b90508060208402830185811115610fec57610feb610f8e565b5b835b8181101561101557806110018882610faa565b845260208401935050602081019050610fee565b5050509392505050565b600082601f83011261103457611033610ee8565b5b6002611041848285610fbf565b91505092915050565b600067ffffffffffffffff82111561106557611064610eed565b5b602082029050919050565b600061108361107e8461104a565b610f4d565b9050806040840283018581111561109d5761109c610f8e565b5b835b818110156110c657806110b2888261101f565b84526020840193505060408101905061109f565b5050509392505050565b600082601f8301126110e5576110e4610ee8565b5b60026110f2848285611070565b91505092915050565b600067ffffffffffffffff82111561111657611115610eed565b5b602082029050602081019050919050565b600061113a611135846110fb565b610f4d565b9050808382526020820190506020840283018581111561115d5761115c610f8e565b5b835b8181101561118657806111728882610faa565b84526020840193505060208101905061115f565b5050509392505050565b600082601f8301126111a5576111a4610ee8565b5b81356111b5848260208601611127565b91505092915050565b60008060008061012085870312156111d9576111d8610ede565b5b60006111e78782880161101f565b94505060406111f8878288016110d0565b93505060c06112098782880161101f565b92505061010085013567ffffffffffffffff81111561122b5761122a610ee3565b5b61123787828801611190565b91505092959194509250565b600073ffffffffffffffffffffffffffffffffffffffff82169050919050565b600061126e82611243565b9050919050565b61127e81611263565b811461128957600080fd5b50565b60008135905061129b81611275565b92915050565b6000602082840312156112b7576112b6610ede565b5b60006112c58482850161128c565b91505092915050565b600080600080600061014086880312156112eb576112ea610ede565b5b60006112f98882890161128c565b955050602061130a8882890161101f565b945050606061131b888289016110d0565b93505060e061132c8882890161101f565b92505061012086013567ffffffffffffffff81111561134e5761134d610ee3565b5b61135a88828901611190565b9150509295509295909350565b7f4e487b7100000000000000000000000000000000000000000000000000000000600052602260045260246000fd5b600060028204905060018216806113ae57607f821691505b6020821081036113c1576113c0611367565b5b50919050565b7f4e487b7100000000000000000000000000000000000000000000000000000000600052603260045260246000fd5b7f77726f6e672062616c616e63652076616c756500000000000000000000000000600082015250565b600061142c601383610df9565b9150611437826113f6565b602082019050919050565b6000602082019050818103600083015261145b8161141f565b9050919050565b7f696e76616c6964206b65792076616c7565000000000000000000000000000000600082015250565b6000611498601183610df9565b91506114a382611462565b602082019050919050565b600060208201905081810360008301526114c78161148b565b9050919050565b600060029050919050565b600081905092915050565b6000819050919050565b6114f781610ea0565b82525050565b600061150983836114ee565b60208301905092915050565b6000602082019050919050565b61152b816114ce565b61153581846114d9565b9250611540826114e4565b8060005b8381101561157157815161155887826114fd565b965061156383611515565b925050600181019050611544565b505050505050565b600060029050919050565b600081905092915050565b6000819050919050565b600081905092915050565b6115ad816114ce565b6115b78184611599565b92506115c2826114e4565b8060005b838110156115f35781516115da87826114fd565b96506115e583611515565b9250506001810190506115c6565b505050505050565b600061160783836115a4565b60408301905092915050565b6000602082019050919050565b61162981611579565b6116338184611584565b925061163e8261158f565b8060005b8381101561166f57815161165687826115fb565b965061166183611613565b925050600181019050611642565b505050505050565b600081519050919050565b600082825260208201905092915050565b6000819050602082019050919050565b6000602082019050919050565b60006116bb82611677565b6116c58185611682565b93506116d083611693565b8060005b838110156117015781516116e888826114fd565b97506116f3836116a3565b9250506001810190506116d4565b5085935050505092915050565b6000610120820190506117246000830187611522565b6117316040830186611620565b61173e60c0830185611522565b81810361010083015261175181846116b0565b905095945050505050565b60008115159050919050565b6117718161175c565b811461177c57600080fd5b50565b60008151905061178e81611768565b92915050565b6000602082840312156117aa576117a9610ede565b5b60006117b88482850161177f565b91505092915050565b7f57726f6e672070726f6f66000000000000000000000000000000000000000000600082015250565b60006117f7600b83610df9565b9150611802826117c1565b602082019050919050565b60006020820190508181036000830152611826816117ea565b9050919050565b7f796f752063616e6e6f742073656e64206d6f6e657920746f20796f757273656c60008201527f6600000000000000000000000000000000000000000000000000000000000000602082015250565b6000611889602183610df9565b91506118948261182d565b604082019050919050565b600060208201905081810360008301526118b88161187c565b9050919050565b7f7a65726f20616464726573730000000000000000000000000000000000000000600082015250565b60006118f5600c83610df9565b9150611900826118bf565b602082019050919050565b60006020820190508181036000830152611924816118e8565b9050919050565b7f75736572206e6f74207265676973746572656400000000000000000000000000600082015250565b6000611961601383610df9565b915061196c8261192b565b602082019050919050565b6000602082019050818103600083015261199081611954565b9050919050565b7f4e487b7100000000000000000000000000000000000000000000000000000000600052601160045260246000fd5b60006119d182610ea0565b91506119dc83610ea0565b92508282026119ea81610ea0565b91508282048414831517611a0157611a00611997565b5b5092915050565b7f4e487b7100000000000000000000000000000000000000000000000000000000600052601260045260246000fd5b6000611a4282610ea0565b9150611a4d83610ea0565b925082611a5d57611a5c611a08565b5b82820690509291505056fea2646970667358221220e5616082ce16eb07eaf9ffa25d20d0ec868511c1534ce29bb3043ac1476e609964736f6c63430008120033",
  "linkReferences": {},
  "deployedLinkReferences": {}
}