{"contracts/Verifiers/RegistrationVerifier.sol":{"RegistrationVerifier":{"abi":[{"inputs":[{"internalType":"uint256[2]","name":"a","type":"uint256[2]"},{"internalType":"uint256[2][2]","name":"b","type":"uint256[2][2]"},{"internalType":"uint256[2]","name":"c","type":"uint256[2]"},{"internalType":"uint256[]","name":"input","type":"uint256[]"}],"name":"verifyProof","outputs":[{"internalType":"bool","name":"r","type":"bool"}],"stateMutability":"view","type":"function"}],"evm":{"bytecode":{"linkReferences":{},"object":"608060405234801561001057600080fd5b50611bc6806100206000396000f3fe608060405234801561001057600080fd5b506004361061002b5760003560e01c8063c32e370e14610030575b600080fd5b61004a6004803603810190610045919061168c565b610060565b604051610057919061172c565b60405180910390f35b600061006a611245565b60405180604001604052808760006002811061008957610088611747565b5b60200201518152602001876001600281106100a7576100a6611747565b5b6020020151815250816000018190525060405180604001604052806040518060400160405280886000600281106100e1576100e0611747565b5b60200201516000600281106100f9576100f8611747565b5b602002015181526020018860006002811061011757610116611747565b5b602002015160016002811061012f5761012e611747565b5b6020020151815250815260200160405180604001604052808860016002811061015b5761015a611747565b5b602002015160006002811061017357610172611747565b5b602002015181526020018860016002811061019157610190611747565b5b60200201516001600281106101a9576101a8611747565b5b602002015181525081525081602001819052506040518060400160405280856000600281106101db576101da611747565b5b60200201518152602001856001600281106101f9576101f8611747565b5b602002015181525081604001819052506000835167ffffffffffffffff811115610226576102256113b1565b5b6040519080825280602002602001820160405280156102545781602001602082028036833780820191505090505b50905060005b84518110156102b05784818151811061027657610275611747565b5b602002602001015182828151811061029157610290611747565b5b60200260200101818152505080806102a8906117a5565b91505061025a565b5060006102bd82846102dc565b036102cd576001925050506102d4565b6000925050505b949350505050565b6000807f30644e72e131a029b85045b68181585d2833e84879b9709143e1f593f00000019050600061030c6104cf565b90508060800151516001865161032291906117ed565b14610362576040517f08c379a00000000000000000000000000000000000000000000000000000000081526004016103599061187e565b60405180910390fd5b60006040518060400160405280600081526020016000815250905060005b8651811015610451578387828151811061039d5761039c611747565b5b6020026020010151106103e5576040517f08c379a00000000000000000000000000000000000000000000000000000000081526004016103dc906118ea565b60405180910390fd5b61043c8261043785608001516001856103fe91906117ed565b8151811061040f5761040e611747565b5b60200260200101518a858151811061042a57610429611747565b5b6020026020010151610a3b565b610b13565b91508080610449906117a5565b915050610380565b5061047b81836080015160008151811061046e5761046d611747565b5b6020026020010151610b13565b90506104b161048d8660000151610c11565b8660200151846000015185602001518587604001518b604001518960600151610cb6565b6104c157600193505050506104c9565b600093505050505b92915050565b6104d7611278565b60405180604001604052807f0d341279e170f2cb86330aa7975e1a517c641563e5e307a268d5bce77b2cc61281526020017f1e5f3463ae9b56d97c67c582e4b71f323a92b324f0c4879704552b7c0a0192828152508160000181905250604051806040016040528060405180604001604052807f078b9eeee55e2dcdfd956214c1a5a46551f16db5c2befafe8f58cb380b630afa81526020017f14f66f481edb001cb7e47ddd22026856b8aacd5360e8e3b34cdc6599977d4fe2815250815260200160405180604001604052807f03ccdc20002555d635e3c7e652863cd28bdb85bcddb05352da2a75c741a9d14c81526020017f15806ef9ad7dfd56f37f1fc3620b3f75c37bd2cadac8c4583726d2187fd1820e8152508152508160200181905250604051806040016040528060405180604001604052807f198e9393920d483a7260bfb731fb5d25f1aa493335a9e71297e485b7aef312c281526020017f1800deef121f1e76426a00665e5c4479674322d4f75edadd46debd5cd992f6ed815250815260200160405180604001604052807f090689d0585ff075ec9e99ad690c3395bc4b313370b38ef355acdadcd122975b81526020017f12c85ea5db8c6deb4aab71808dcb408fe3d1e7690c43d37b4ce6cc0166fa7daa8152508152508160400181905250604051806040016040528060405180604001604052807f1815c0c06ac1b3ace504d980fe3d4f85f4fbd8738f5d2df8ecae7b552bccf0e481526020017f0d7a182532db10c7b482eefd882410511e9d5884dc37be92fba6049aa632602f815250815260200160405180604001604052807f02895f8398ad5104fefbf704680d66cd65ee31d532cd18627fbbbe7235289df081526020017f215eaacc5fa72739fda5cf4254bd77511314ebab1719f1b5b2b244e1f31509998152508152508160600181905250600567ffffffffffffffff81111561079e5761079d6113b1565b5b6040519080825280602002602001820160405280156107d757816020015b6107c46112bf565b8152602001906001900390816107bc5790505b50816080018190525060405180604001604052807f23a54e639f0b2994756e30d705386dd0ebbfec56294d7d6856244273df24422081526020017f2abb5579466273d75ee844c91338fecb034635c41dcd068406b9e9c1e378cea0815250816080015160008151811061084d5761084c611747565b5b602002602001018190525060405180604001604052807f0104dd1ee753cbc254383ce70868362a64b98db258085c7b0549c0d4da00db7781526020017f01b33626d76876685f18cb5b53373d22dd2a539732a6c91d96bbb9f7c687c37081525081608001516001815181106108c5576108c4611747565b5b602002602001018190525060405180604001604052807f1bbaab1c231fab3b608c2b48692f99e53501b57d4567f10d9c93432098d5c58981526020017f1deefca589101c5504d33011abd00def436c23a1c35004c74ada481015fe2ace815250816080015160028151811061093d5761093c611747565b5b602002602001018190525060405180604001604052807f0c9885d1f672f8427cecb7f62b8f6b2bc5fe16f7b80809a901085f0270b1a25781526020017f22a82d0871d5c5584b721c03e5f2f634427330d7aa63c20c4b0b444c1d1fdbcf81525081608001516003815181106109b5576109b4611747565b5b602002602001018190525060405180604001604052807f1dfc8718d5277ec5f05a90cd92f4e94f977a6236af8c536002151535bff7a75981526020017f2cf7075f8b3f791ca84d9f4e93b4288781ce0b0d42b537a4b538afc5793cc4e28152508160800151600481518110610a2d57610a2c611747565b5b602002602001018190525090565b610a436112bf565b610a4b6112d9565b836000015181600060038110610a6457610a63611747565b5b602002018181525050836020015181600160038110610a8657610a85611747565b5b6020020181815250508281600260038110610aa457610aa3611747565b5b602002018181525050600060608360808460076107d05a03fa90508060008103610aca57fe5b5080610b0b576040517f08c379a0000000000000000000000000000000000000000000000000000000008152600401610b0290611956565b60405180910390fd5b505092915050565b610b1b6112bf565b610b236112fb565b836000015181600060048110610b3c57610b3b611747565b5b602002018181525050836020015181600160048110610b5e57610b5d611747565b5b602002018181525050826000015181600260048110610b8057610b7f611747565b5b602002018181525050826020015181600360048110610ba257610ba1611747565b5b602002018181525050600060608360c08460066107d05a03fa90508060008103610bc857fe5b5080610c09576040517f08c379a0000000000000000000000000000000000000000000000000000000008152600401610c00906119c2565b60405180910390fd5b505092915050565b610c196112bf565b60007f30644e72e131a029b85045b68181585d97816a916871ca8d3c208c16d87cfd47905060008360000151148015610c56575060008360200151145b15610c7a576040518060400160405280600081526020016000815250915050610cb1565b604051806040016040528084600001518152602001828560200151610c9f9190611a11565b83610caa9190611a42565b8152509150505b919050565b600080600467ffffffffffffffff811115610cd457610cd36113b1565b5b604051908082528060200260200182016040528015610d0d57816020015b610cfa6112bf565b815260200190600190039081610cf25790505b5090506000600467ffffffffffffffff811115610d2d57610d2c6113b1565b5b604051908082528060200260200182016040528015610d6657816020015b610d5361131d565b815260200190600190039081610d4b5790505b5090508a82600081518110610d7e57610d7d611747565b5b60200260200101819052508882600181518110610d9e57610d9d611747565b5b60200260200101819052508682600281518110610dbe57610dbd611747565b5b60200260200101819052508482600381518110610dde57610ddd611747565b5b60200260200101819052508981600081518110610dfe57610dfd611747565b5b60200260200101819052508781600181518110610e1e57610e1d611747565b5b60200260200101819052508581600281518110610e3e57610e3d611747565b5b60200260200101819052508381600381518110610e5e57610e5d611747565b5b6020026020010181905250610e738282610e83565b9250505098975050505050505050565b60008151835114610ec9576040517f08c379a0000000000000000000000000000000000000000000000000000000008152600401610ec090611ac2565b60405180910390fd5b6000835190506000600682610ede9190611ae2565b905060008167ffffffffffffffff811115610efc57610efb6113b1565b5b604051908082528060200260200182016040528015610f2a5781602001602082028036833780820191505090505b50905060005b838110156111af57868181518110610f4b57610f4a611747565b5b602002602001015160000151826000600684610f679190611ae2565b610f7191906117ed565b81518110610f8257610f81611747565b5b602002602001018181525050868181518110610fa157610fa0611747565b5b602002602001015160200151826001600684610fbd9190611ae2565b610fc791906117ed565b81518110610fd857610fd7611747565b5b602002602001018181525050858181518110610ff757610ff6611747565b5b60200260200101516000015160006002811061101657611015611747565b5b602002015182600260068461102b9190611ae2565b61103591906117ed565b8151811061104657611045611747565b5b60200260200101818152505085818151811061106557611064611747565b5b60200260200101516000015160016002811061108457611083611747565b5b60200201518260036006846110999190611ae2565b6110a391906117ed565b815181106110b4576110b3611747565b5b6020026020010181815250508581815181106110d3576110d2611747565b5b6020026020010151602001516000600281106110f2576110f1611747565b5b60200201518260046006846111079190611ae2565b61111191906117ed565b8151811061112257611121611747565b5b60200260200101818152505085818151811061114157611140611747565b5b6020026020010151602001516001600281106111605761115f611747565b5b60200201518260056006846111759190611ae2565b61117f91906117ed565b815181106111905761118f611747565b5b60200260200101818152505080806111a7906117a5565b915050610f30565b506111b8611343565b6000602082602086026020860160086107d05a03fa905080600081036111da57fe5b508061121b576040517f08c379a000000000000000000000000000000000000000000000000000000000815260040161121290611b70565b60405180910390fd5b60008260006001811061123157611230611747565b5b602002015114159550505050505092915050565b60405180606001604052806112586112bf565b815260200161126561131d565b81526020016112726112bf565b81525090565b6040518060a0016040528061128b6112bf565b815260200161129861131d565b81526020016112a561131d565b81526020016112b261131d565b8152602001606081525090565b604051806040016040528060008152602001600081525090565b6040518060600160405280600390602082028036833780820191505090505090565b6040518060800160405280600490602082028036833780820191505090505090565b6040518060400160405280611330611365565b815260200161133d611365565b81525090565b6040518060200160405280600190602082028036833780820191505090505090565b6040518060400160405280600290602082028036833780820191505090505090565b6000604051905090565b600080fd5b600080fd5b600080fd5b6000601f19601f8301169050919050565b7f4e487b7100000000000000000000000000000000000000000000000000000000600052604160045260246000fd5b6113e9826113a0565b810181811067ffffffffffffffff82111715611408576114076113b1565b5b80604052505050565b600061141b611387565b905061142782826113e0565b919050565b600067ffffffffffffffff821115611447576114466113b1565b5b602082029050919050565b600080fd5b6000819050919050565b61146a81611457565b811461147557600080fd5b50565b60008135905061148781611461565b92915050565b60006114a061149b8461142c565b611411565b905080602084028301858111156114ba576114b9611452565b5b835b818110156114e357806114cf8882611478565b8452602084019350506020810190506114bc565b5050509392505050565b600082601f8301126115025761150161139b565b5b600261150f84828561148d565b91505092915050565b600067ffffffffffffffff821115611533576115326113b1565b5b602082029050919050565b600061155161154c84611518565b611411565b9050806040840283018581111561156b5761156a611452565b5b835b81811015611594578061158088826114ed565b84526020840193505060408101905061156d565b5050509392505050565b600082601f8301126115b3576115b261139b565b5b60026115c084828561153e565b91505092915050565b600067ffffffffffffffff8211156115e4576115e36113b1565b5b602082029050602081019050919050565b6000611608611603846115c9565b611411565b9050808382526020820190506020840283018581111561162b5761162a611452565b5b835b8181101561165457806116408882611478565b84526020840193505060208101905061162d565b5050509392505050565b600082601f8301126116735761167261139b565b5b81356116838482602086016115f5565b91505092915050565b60008060008061012085870312156116a7576116a6611391565b5b60006116b5878288016114ed565b94505060406116c68782880161159e565b93505060c06116d7878288016114ed565b92505061010085013567ffffffffffffffff8111156116f9576116f8611396565b5b6117058782880161165e565b91505092959194509250565b60008115159050919050565b61172681611711565b82525050565b6000602082019050611741600083018461171d565b92915050565b7f4e487b7100000000000000000000000000000000000000000000000000000000600052603260045260246000fd5b7f4e487b7100000000000000000000000000000000000000000000000000000000600052601160045260246000fd5b60006117b082611457565b91507fffffffffffffffffffffffffffffffffffffffffffffffffffffffffffffffff82036117e2576117e1611776565b5b600182019050919050565b60006117f882611457565b915061180383611457565b925082820190508082111561181b5761181a611776565b5b92915050565b600082825260208201905092915050565b7f76657269666965722d6261642d696e7075740000000000000000000000000000600082015250565b6000611868601283611821565b915061187382611832565b602082019050919050565b600060208201905081810360008301526118978161185b565b9050919050565b7f76657269666965722d6774652d736e61726b2d7363616c61722d6669656c6400600082015250565b60006118d4601f83611821565b91506118df8261189e565b602082019050919050565b60006020820190508181036000830152611903816118c7565b9050919050565b7f70616972696e672d6d756c2d6661696c65640000000000000000000000000000600082015250565b6000611940601283611821565b915061194b8261190a565b602082019050919050565b6000602082019050818103600083015261196f81611933565b9050919050565b7f70616972696e672d6164642d6661696c65640000000000000000000000000000600082015250565b60006119ac601283611821565b91506119b782611976565b602082019050919050565b600060208201905081810360008301526119db8161199f565b9050919050565b7f4e487b7100000000000000000000000000000000000000000000000000000000600052601260045260246000fd5b6000611a1c82611457565b9150611a2783611457565b925082611a3757611a366119e2565b5b828206905092915050565b6000611a4d82611457565b9150611a5883611457565b9250828203905081811115611a7057611a6f611776565b5b92915050565b7f70616972696e672d6c656e677468732d6661696c656400000000000000000000600082015250565b6000611aac601683611821565b9150611ab782611a76565b602082019050919050565b60006020820190508181036000830152611adb81611a9f565b9050919050565b6000611aed82611457565b9150611af883611457565b9250828202611b0681611457565b91508282048414831517611b1d57611b1c611776565b5b5092915050565b7f70616972696e672d6f70636f64652d6661696c65640000000000000000000000600082015250565b6000611b5a601583611821565b9150611b6582611b24565b602082019050919050565b60006020820190508181036000830152611b8981611b4d565b905091905056fea26469706673582212209cfbc433baac71bd4cd758586aec4bbea674ba80b585a4b3a97c2382afdde27564736f6c63430008120033","opcodes":"PUSH1 0x80 PUSH1 0x40 MSTORE CALLVALUE DUP1 ISZERO PUSH2 0x10 JUMPI PUSH1 0x0 DUP1 REVERT JUMPDEST POP PUSH2 0x1BC6 DUP1 PUSH2 0x20 PUSH1 0x0 CODECOPY PUSH1 0x0 RETURN INVALID PUSH1 0x80 PUSH1 0x40 MSTORE CALLVALUE DUP1 ISZERO PUSH2 0x10 JUMPI PUSH1 0x0 DUP1 REVERT JUMPDEST POP PUSH1 0x4 CALLDATASIZE LT PUSH2 0x2B JUMPI PUSH1 0x0 CALLDATALOAD PUSH1 0xE0 SHR DUP1 PUSH4 0xC32E370E EQ PUSH2 0x30 JUMPI JUMPDEST PUSH1 0x0 DUP1 REVERT JUMPDEST PUSH2 0x4A PUSH1 0x4 DUP1 CALLDATASIZE SUB DUP2 ADD SWAP1 PUSH2 0x45 SWAP2 SWAP1 PUSH2 0x168C JUMP JUMPDEST PUSH2 0x60 JUMP JUMPDEST PUSH1 0x40 MLOAD PUSH2 0x57 SWAP2 SWAP1 PUSH2 0x172C JUMP JUMPDEST PUSH1 0x40 MLOAD DUP1 SWAP2 SUB SWAP1 RETURN JUMPDEST PUSH1 0x0 PUSH2 0x6A PUSH2 0x1245 JUMP JUMPDEST PUSH1 0x40 MLOAD DUP1 PUSH1 0x40 ADD PUSH1 0x40 MSTORE DUP1 DUP8 PUSH1 0x0 PUSH1 0x2 DUP2 LT PUSH2 0x89 JUMPI PUSH2 0x88 PUSH2 0x1747 JUMP JUMPDEST JUMPDEST PUSH1 0x20 MUL ADD MLOAD DUP2 MSTORE PUSH1 0x20 ADD DUP8 PUSH1 0x1 PUSH1 0x2 DUP2 LT PUSH2 0xA7 JUMPI PUSH2 0xA6 PUSH2 0x1747 JUMP JUMPDEST JUMPDEST PUSH1 0x20 MUL ADD MLOAD DUP2 MSTORE POP DUP2 PUSH1 0x0 ADD DUP2 SWAP1 MSTORE POP PUSH1 0x40 MLOAD DUP1 PUSH1 0x40 ADD PUSH1 0x40 MSTORE DUP1 PUSH1 0x40 MLOAD DUP1 PUSH1 0x40 ADD PUSH1 0x40 MSTORE DUP1 DUP9 PUSH1 0x0 PUSH1 0x2 DUP2 LT PUSH2 0xE1 JUMPI PUSH2 0xE0 PUSH2 0x1747 JUMP JUMPDEST JUMPDEST PUSH1 0x20 MUL ADD MLOAD PUSH1 0x0 PUSH1 0x2 DUP2 LT PUSH2 0xF9 JUMPI PUSH2 0xF8 PUSH2 0x1747 JUMP JUMPDEST JUMPDEST PUSH1 0x20 MUL ADD MLOAD DUP2 MSTORE PUSH1 0x20 ADD DUP9 PUSH1 0x0 PUSH1 0x2 DUP2 LT PUSH2 0x117 JUMPI PUSH2 0x116 PUSH2 0x1747 JUMP JUMPDEST JUMPDEST PUSH1 0x20 MUL ADD MLOAD PUSH1 0x1 PUSH1 0x2 DUP2 LT PUSH2 0x12F JUMPI PUSH2 0x12E PUSH2 0x1747 JUMP JUMPDEST JUMPDEST PUSH1 0x20 MUL ADD MLOAD DUP2 MSTORE POP DUP2 MSTORE PUSH1 0x20 ADD PUSH1 0x40 MLOAD DUP1 PUSH1 0x40 ADD PUSH1 0x40 MSTORE DUP1 DUP9 PUSH1 0x1 PUSH1 0x2 DUP2 LT PUSH2 0x15B JUMPI PUSH2 0x15A PUSH2 0x1747 JUMP JUMPDEST JUMPDEST PUSH1 0x20 MUL ADD MLOAD PUSH1 0x0 PUSH1 0x2 DUP2 LT PUSH2 0x173 JUMPI PUSH2 0x172 PUSH2 0x1747 JUMP JUMPDEST JUMPDEST PUSH1 0x20 MUL ADD MLOAD DUP2 MSTORE PUSH1 0x20 ADD DUP9 PUSH1 0x1 PUSH1 0x2 DUP2 LT PUSH2 0x191 JUMPI PUSH2 0x190 PUSH2 0x1747 JUMP JUMPDEST JUMPDEST PUSH1 0x20 MUL ADD MLOAD PUSH1 0x1 PUSH1 0x2 DUP2 LT PUSH2 0x1A9 JUMPI PUSH2 0x1A8 PUSH2 0x1747 JUMP JUMPDEST JUMPDEST PUSH1 0x20 MUL ADD MLOAD DUP2 MSTORE POP DUP2 MSTORE POP DUP2 PUSH1 0x20 ADD DUP2 SWAP1 MSTORE POP PUSH1 0x40 MLOAD DUP1 PUSH1 0x40 ADD PUSH1 0x40 MSTORE DUP1 DUP6 PUSH1 0x0 PUSH1 0x2 DUP2 LT PUSH2 0x1DB JUMPI PUSH2 0x1DA PUSH2 0x1747 JUMP JUMPDEST JUMPDEST PUSH1 0x20 MUL ADD MLOAD DUP2 MSTORE PUSH1 0x20 ADD DUP6 PUSH1 0x1 PUSH1 0x2 DUP2 LT PUSH2 0x1F9 JUMPI PUSH2 0x1F8 PUSH2 0x1747 JUMP JUMPDEST JUMPDEST PUSH1 0x20 MUL ADD MLOAD DUP2 MSTORE POP DUP2 PUSH1 0x40 ADD DUP2 SWAP1 MSTORE POP PUSH1 0x0 DUP4 MLOAD PUSH8 0xFFFFFFFFFFFFFFFF DUP2 GT ISZERO PUSH2 0x226 JUMPI PUSH2 0x225 PUSH2 0x13B1 JUMP JUMPDEST JUMPDEST PUSH1 0x40 MLOAD SWAP1 DUP1 DUP3 MSTORE DUP1 PUSH1 0x20 MUL PUSH1 0x20 ADD DUP3 ADD PUSH1 0x40 MSTORE DUP1 ISZERO PUSH2 0x254 JUMPI DUP2 PUSH1 0x20 ADD PUSH1 0x20 DUP3 MUL DUP1 CALLDATASIZE DUP4 CALLDATACOPY DUP1 DUP3 ADD SWAP2 POP POP SWAP1 POP JUMPDEST POP SWAP1 POP PUSH1 0x0 JUMPDEST DUP5 MLOAD DUP2 LT ISZERO PUSH2 0x2B0 JUMPI DUP5 DUP2 DUP2 MLOAD DUP2 LT PUSH2 0x276 JUMPI PUSH2 0x275 PUSH2 0x1747 JUMP JUMPDEST JUMPDEST PUSH1 0x20 MUL PUSH1 0x20 ADD ADD MLOAD DUP3 DUP3 DUP2 MLOAD DUP2 LT PUSH2 0x291 JUMPI PUSH2 0x290 PUSH2 0x1747 JUMP JUMPDEST JUMPDEST PUSH1 0x20 MUL PUSH1 0x20 ADD ADD DUP2 DUP2 MSTORE POP POP DUP1 DUP1 PUSH2 0x2A8 SWAP1 PUSH2 0x17A5 JUMP JUMPDEST SWAP2 POP POP PUSH2 0x25A JUMP JUMPDEST POP PUSH1 0x0 PUSH2 0x2BD DUP3 DUP5 PUSH2 0x2DC JUMP JUMPDEST SUB PUSH2 0x2CD JUMPI PUSH1 0x1 SWAP3 POP POP POP PUSH2 0x2D4 JUMP JUMPDEST PUSH1 0x0 SWAP3 POP POP POP JUMPDEST SWAP5 SWAP4 POP POP POP POP JUMP JUMPDEST PUSH1 0x0 DUP1 PUSH32 0x30644E72E131A029B85045B68181585D2833E84879B9709143E1F593F0000001 SWAP1 POP PUSH1 0x0 PUSH2 0x30C PUSH2 0x4CF JUMP JUMPDEST SWAP1 POP DUP1 PUSH1 0x80 ADD MLOAD MLOAD PUSH1 0x1 DUP7 MLOAD PUSH2 0x322 SWAP2 SWAP1 PUSH2 0x17ED JUMP JUMPDEST EQ PUSH2 0x362 JUMPI PUSH1 0x40 MLOAD PUSH32 0x8C379A000000000000000000000000000000000000000000000000000000000 DUP2 MSTORE PUSH1 0x4 ADD PUSH2 0x359 SWAP1 PUSH2 0x187E JUMP JUMPDEST PUSH1 0x40 MLOAD DUP1 SWAP2 SUB SWAP1 REVERT JUMPDEST PUSH1 0x0 PUSH1 0x40 MLOAD DUP1 PUSH1 0x40 ADD PUSH1 0x40 MSTORE DUP1 PUSH1 0x0 DUP2 MSTORE PUSH1 0x20 ADD PUSH1 0x0 DUP2 MSTORE POP SWAP1 POP PUSH1 0x0 JUMPDEST DUP7 MLOAD DUP2 LT ISZERO PUSH2 0x451 JUMPI DUP4 DUP8 DUP3 DUP2 MLOAD DUP2 LT PUSH2 0x39D JUMPI PUSH2 0x39C PUSH2 0x1747 JUMP JUMPDEST JUMPDEST PUSH1 0x20 MUL PUSH1 0x20 ADD ADD MLOAD LT PUSH2 0x3E5 JUMPI PUSH1 0x40 MLOAD PUSH32 0x8C379A000000000000000000000000000000000000000000000000000000000 DUP2 MSTORE PUSH1 0x4 ADD PUSH2 0x3DC SWAP1 PUSH2 0x18EA JUMP JUMPDEST PUSH1 0x40 MLOAD DUP1 SWAP2 SUB SWAP1 REVERT JUMPDEST PUSH2 0x43C DUP3 PUSH2 0x437 DUP6 PUSH1 0x80 ADD MLOAD PUSH1 0x1 DUP6 PUSH2 0x3FE SWAP2 SWAP1 PUSH2 0x17ED JUMP JUMPDEST DUP2 MLOAD DUP2 LT PUSH2 0x40F JUMPI PUSH2 0x40E PUSH2 0x1747 JUMP JUMPDEST JUMPDEST PUSH1 0x20 MUL PUSH1 0x20 ADD ADD MLOAD DUP11 DUP6 DUP2 MLOAD DUP2 LT PUSH2 0x42A JUMPI PUSH2 0x429 PUSH2 0x1747 JUMP JUMPDEST JUMPDEST PUSH1 0x20 MUL PUSH1 0x20 ADD ADD MLOAD PUSH2 0xA3B JUMP JUMPDEST PUSH2 0xB13 JUMP JUMPDEST SWAP2 POP DUP1 DUP1 PUSH2 0x449 SWAP1 PUSH2 0x17A5 JUMP JUMPDEST SWAP2 POP POP PUSH2 0x380 JUMP JUMPDEST POP PUSH2 0x47B DUP2 DUP4 PUSH1 0x80 ADD MLOAD PUSH1 0x0 DUP2 MLOAD DUP2 LT PUSH2 0x46E JUMPI PUSH2 0x46D PUSH2 0x1747 JUMP JUMPDEST JUMPDEST PUSH1 0x20 MUL PUSH1 0x20 ADD ADD MLOAD PUSH2 0xB13 JUMP JUMPDEST SWAP1 POP PUSH2 0x4B1 PUSH2 0x48D DUP7 PUSH1 0x0 ADD MLOAD PUSH2 0xC11 JUMP JUMPDEST DUP7 PUSH1 0x20 ADD MLOAD DUP5 PUSH1 0x0 ADD MLOAD DUP6 PUSH1 0x20 ADD MLOAD DUP6 DUP8 PUSH1 0x40 ADD MLOAD DUP12 PUSH1 0x40 ADD MLOAD DUP10 PUSH1 0x60 ADD MLOAD PUSH2 0xCB6 JUMP JUMPDEST PUSH2 0x4C1 JUMPI PUSH1 0x1 SWAP4 POP POP POP POP PUSH2 0x4C9 JUMP JUMPDEST PUSH1 0x0 SWAP4 POP POP POP POP JUMPDEST SWAP3 SWAP2 POP POP JUMP JUMPDEST PUSH2 0x4D7 PUSH2 0x1278 JUMP JUMPDEST PUSH1 0x40 MLOAD DUP1 PUSH1 0x40 ADD PUSH1 0x40 MSTORE DUP1 PUSH32 0xD341279E170F2CB86330AA7975E1A517C641563E5E307A268D5BCE77B2CC612 DUP2 MSTORE PUSH1 0x20 ADD PUSH32 0x1E5F3463AE9B56D97C67C582E4B71F323A92B324F0C4879704552B7C0A019282 DUP2 MSTORE POP DUP2 PUSH1 0x0 ADD DUP2 SWAP1 MSTORE POP PUSH1 0x40 MLOAD DUP1 PUSH1 0x40 ADD PUSH1 0x40 MSTORE DUP1 PUSH1 0x40 MLOAD DUP1 PUSH1 0x40 ADD PUSH1 0x40 MSTORE DUP1 PUSH32 0x78B9EEEE55E2DCDFD956214C1A5A46551F16DB5C2BEFAFE8F58CB380B630AFA DUP2 MSTORE PUSH1 0x20 ADD PUSH32 0x14F66F481EDB001CB7E47DDD22026856B8AACD5360E8E3B34CDC6599977D4FE2 DUP2 MSTORE POP DUP2 MSTORE PUSH1 0x20 ADD PUSH1 0x40 MLOAD DUP1 PUSH1 0x40 ADD PUSH1 0x40 MSTORE DUP1 PUSH32 0x3CCDC20002555D635E3C7E652863CD28BDB85BCDDB05352DA2A75C741A9D14C DUP2 MSTORE PUSH1 0x20 ADD PUSH32 0x15806EF9AD7DFD56F37F1FC3620B3F75C37BD2CADAC8C4583726D2187FD1820E DUP2 MSTORE POP DUP2 MSTORE POP DUP2 PUSH1 0x20 ADD DUP2 SWAP1 MSTORE POP PUSH1 0x40 MLOAD DUP1 PUSH1 0x40 ADD PUSH1 0x40 MSTORE DUP1 PUSH1 0x40 MLOAD DUP1 PUSH1 0x40 ADD PUSH1 0x40 MSTORE DUP1 PUSH32 0x198E9393920D483A7260BFB731FB5D25F1AA493335A9E71297E485B7AEF312C2 DUP2 MSTORE PUSH1 0x20 ADD PUSH32 0x1800DEEF121F1E76426A00665E5C4479674322D4F75EDADD46DEBD5CD992F6ED DUP2 MSTORE POP DUP2 MSTORE PUSH1 0x20 ADD PUSH1 0x40 MLOAD DUP1 PUSH1 0x40 ADD PUSH1 0x40 MSTORE DUP1 PUSH32 0x90689D0585FF075EC9E99AD690C3395BC4B313370B38EF355ACDADCD122975B DUP2 MSTORE PUSH1 0x20 ADD PUSH32 0x12C85EA5DB8C6DEB4AAB71808DCB408FE3D1E7690C43D37B4CE6CC0166FA7DAA DUP2 MSTORE POP DUP2 MSTORE POP DUP2 PUSH1 0x40 ADD DUP2 SWAP1 MSTORE POP PUSH1 0x40 MLOAD DUP1 PUSH1 0x40 ADD PUSH1 0x40 MSTORE DUP1 PUSH1 0x40 MLOAD DUP1 PUSH1 0x40 ADD PUSH1 0x40 MSTORE DUP1 PUSH32 0x1815C0C06AC1B3ACE504D980FE3D4F85F4FBD8738F5D2DF8ECAE7B552BCCF0E4 DUP2 MSTORE PUSH1 0x20 ADD PUSH32 0xD7A182532DB10C7B482EEFD882410511E9D5884DC37BE92FBA6049AA632602F DUP2 MSTORE POP DUP2 MSTORE PUSH1 0x20 ADD PUSH1 0x40 MLOAD DUP1 PUSH1 0x40 ADD PUSH1 0x40 MSTORE DUP1 PUSH32 0x2895F8398AD5104FEFBF704680D66CD65EE31D532CD18627FBBBE7235289DF0 DUP2 MSTORE PUSH1 0x20 ADD PUSH32 0x215EAACC5FA72739FDA5CF4254BD77511314EBAB1719F1B5B2B244E1F3150999 DUP2 MSTORE POP DUP2 MSTORE POP DUP2 PUSH1 0x60 ADD DUP2 SWAP1 MSTORE POP PUSH1 0x5 PUSH8 0xFFFFFFFFFFFFFFFF DUP2 GT ISZERO PUSH2 0x79E JUMPI PUSH2 0x79D PUSH2 0x13B1 JUMP JUMPDEST JUMPDEST PUSH1 0x40 MLOAD SWAP1 DUP1 DUP3 MSTORE DUP1 PUSH1 0x20 MUL PUSH1 0x20 ADD DUP3 ADD PUSH1 0x40 MSTORE DUP1 ISZERO PUSH2 0x7D7 JUMPI DUP2 PUSH1 0x20 ADD JUMPDEST PUSH2 0x7C4 PUSH2 0x12BF JUMP JUMPDEST DUP2 MSTORE PUSH1 0x20 ADD SWAP1 PUSH1 0x1 SWAP1 SUB SWAP1 DUP2 PUSH2 0x7BC JUMPI SWAP1 POP JUMPDEST POP DUP2 PUSH1 0x80 ADD DUP2 SWAP1 MSTORE POP PUSH1 0x40 MLOAD DUP1 PUSH1 0x40 ADD PUSH1 0x40 MSTORE DUP1 PUSH32 0x23A54E639F0B2994756E30D705386DD0EBBFEC56294D7D6856244273DF244220 DUP2 MSTORE PUSH1 0x20 ADD PUSH32 0x2ABB5579466273D75EE844C91338FECB034635C41DCD068406B9E9C1E378CEA0 DUP2 MSTORE POP DUP2 PUSH1 0x80 ADD MLOAD PUSH1 0x0 DUP2 MLOAD DUP2 LT PUSH2 0x84D JUMPI PUSH2 0x84C PUSH2 0x1747 JUMP JUMPDEST JUMPDEST PUSH1 0x20 MUL PUSH1 0x20 ADD ADD DUP2 SWAP1 MSTORE POP PUSH1 0x40 MLOAD DUP1 PUSH1 0x40 ADD PUSH1 0x40 MSTORE DUP1 PUSH32 0x104DD1EE753CBC254383CE70868362A64B98DB258085C7B0549C0D4DA00DB77 DUP2 MSTORE PUSH1 0x20 ADD PUSH32 0x1B33626D76876685F18CB5B53373D22DD2A539732A6C91D96BBB9F7C687C370 DUP2 MSTORE POP DUP2 PUSH1 0x80 ADD MLOAD PUSH1 0x1 DUP2 MLOAD DUP2 LT PUSH2 0x8C5 JUMPI PUSH2 0x8C4 PUSH2 0x1747 JUMP JUMPDEST JUMPDEST PUSH1 0x20 MUL PUSH1 0x20 ADD ADD DUP2 SWAP1 MSTORE POP PUSH1 0x40 MLOAD DUP1 PUSH1 0x40 ADD PUSH1 0x40 MSTORE DUP1 PUSH32 0x1BBAAB1C231FAB3B608C2B48692F99E53501B57D4567F10D9C93432098D5C589 DUP2 MSTORE PUSH1 0x20 ADD PUSH32 0x1DEEFCA589101C5504D33011ABD00DEF436C23A1C35004C74ADA481015FE2ACE DUP2 MSTORE POP DUP2 PUSH1 0x80 ADD MLOAD PUSH1 0x2 DUP2 MLOAD DUP2 LT PUSH2 0x93D JUMPI PUSH2 0x93C PUSH2 0x1747 JUMP JUMPDEST JUMPDEST PUSH1 0x20 MUL PUSH1 0x20 ADD ADD DUP2 SWAP1 MSTORE POP PUSH1 0x40 MLOAD DUP1 PUSH1 0x40 ADD PUSH1 0x40 MSTORE DUP1 PUSH32 0xC9885D1F672F8427CECB7F62B8F6B2BC5FE16F7B80809A901085F0270B1A257 DUP2 MSTORE PUSH1 0x20 ADD PUSH32 0x22A82D0871D5C5584B721C03E5F2F634427330D7AA63C20C4B0B444C1D1FDBCF DUP2 MSTORE POP DUP2 PUSH1 0x80 ADD MLOAD PUSH1 0x3 DUP2 MLOAD DUP2 LT PUSH2 0x9B5 JUMPI PUSH2 0x9B4 PUSH2 0x1747 JUMP JUMPDEST JUMPDEST PUSH1 0x20 MUL PUSH1 0x20 ADD ADD DUP2 SWAP1 MSTORE POP PUSH1 0x40 MLOAD DUP1 PUSH1 0x40 ADD PUSH1 0x40 MSTORE DUP1 PUSH32 0x1DFC8718D5277EC5F05A90CD92F4E94F977A6236AF8C536002151535BFF7A759 DUP2 MSTORE PUSH1 0x20 ADD PUSH32 0x2CF7075F8B3F791CA84D9F4E93B4288781CE0B0D42B537A4B538AFC5793CC4E2 DUP2 MSTORE POP DUP2 PUSH1 0x80 ADD MLOAD PUSH1 0x4 DUP2 MLOAD DUP2 LT PUSH2 0xA2D JUMPI PUSH2 0xA2C PUSH2 0x1747 JUMP JUMPDEST JUMPDEST PUSH1 0x20 MUL PUSH1 0x20 ADD ADD DUP2 SWAP1 MSTORE POP SWAP1 JUMP JUMPDEST PUSH2 0xA43 PUSH2 0x12BF JUMP JUMPDEST PUSH2 0xA4B PUSH2 0x12D9 JUMP JUMPDEST DUP4 PUSH1 0x0 ADD MLOAD DUP2 PUSH1 0x0 PUSH1 0x3 DUP2 LT PUSH2 0xA64 JUMPI PUSH2 0xA63 PUSH2 0x1747 JUMP JUMPDEST JUMPDEST PUSH1 0x20 MUL ADD DUP2 DUP2 MSTORE POP POP DUP4 PUSH1 0x20 ADD MLOAD DUP2 PUSH1 0x1 PUSH1 0x3 DUP2 LT PUSH2 0xA86 JUMPI PUSH2 0xA85 PUSH2 0x1747 JUMP JUMPDEST JUMPDEST PUSH1 0x20 MUL ADD DUP2 DUP2 MSTORE POP POP DUP3 DUP2 PUSH1 0x2 PUSH1 0x3 DUP2 LT PUSH2 0xAA4 JUMPI PUSH2 0xAA3 PUSH2 0x1747 JUMP JUMPDEST JUMPDEST PUSH1 0x20 MUL ADD DUP2 DUP2 MSTORE POP POP PUSH1 0x0 PUSH1 0x60 DUP4 PUSH1 0x80 DUP5 PUSH1 0x7 PUSH2 0x7D0 GAS SUB STATICCALL SWAP1 POP DUP1 PUSH1 0x0 DUP2 SUB PUSH2 0xACA JUMPI INVALID JUMPDEST POP DUP1 PUSH2 0xB0B JUMPI PUSH1 0x40 MLOAD PUSH32 0x8C379A000000000000000000000000000000000000000000000000000000000 DUP2 MSTORE PUSH1 0x4 ADD PUSH2 0xB02 SWAP1 PUSH2 0x1956 JUMP JUMPDEST PUSH1 0x40 MLOAD DUP1 SWAP2 SUB SWAP1 REVERT JUMPDEST POP POP SWAP3 SWAP2 POP POP JUMP JUMPDEST PUSH2 0xB1B PUSH2 0x12BF JUMP JUMPDEST PUSH2 0xB23 PUSH2 0x12FB JUMP JUMPDEST DUP4 PUSH1 0x0 ADD MLOAD DUP2 PUSH1 0x0 PUSH1 0x4 DUP2 LT PUSH2 0xB3C JUMPI PUSH2 0xB3B PUSH2 0x1747 JUMP JUMPDEST JUMPDEST PUSH1 0x20 MUL ADD DUP2 DUP2 MSTORE POP POP DUP4 PUSH1 0x20 ADD MLOAD DUP2 PUSH1 0x1 PUSH1 0x4 DUP2 LT PUSH2 0xB5E JUMPI PUSH2 0xB5D PUSH2 0x1747 JUMP JUMPDEST JUMPDEST PUSH1 0x20 MUL ADD DUP2 DUP2 MSTORE POP POP DUP3 PUSH1 0x0 ADD MLOAD DUP2 PUSH1 0x2 PUSH1 0x4 DUP2 LT PUSH2 0xB80 JUMPI PUSH2 0xB7F PUSH2 0x1747 JUMP JUMPDEST JUMPDEST PUSH1 0x20 MUL ADD DUP2 DUP2 MSTORE POP POP DUP3 PUSH1 0x20 ADD MLOAD DUP2 PUSH1 0x3 PUSH1 0x4 DUP2 LT PUSH2 0xBA2 JUMPI PUSH2 0xBA1 PUSH2 0x1747 JUMP JUMPDEST JUMPDEST PUSH1 0x20 MUL ADD DUP2 DUP2 MSTORE POP POP PUSH1 0x0 PUSH1 0x60 DUP4 PUSH1 0xC0 DUP5 PUSH1 0x6 PUSH2 0x7D0 GAS SUB STATICCALL SWAP1 POP DUP1 PUSH1 0x0 DUP2 SUB PUSH2 0xBC8 JUMPI INVALID JUMPDEST POP DUP1 PUSH2 0xC09 JUMPI PUSH1 0x40 MLOAD PUSH32 0x8C379A000000000000000000000000000000000000000000000000000000000 DUP2 MSTORE PUSH1 0x4 ADD PUSH2 0xC00 SWAP1 PUSH2 0x19C2 JUMP JUMPDEST PUSH1 0x40 MLOAD DUP1 SWAP2 SUB SWAP1 REVERT JUMPDEST POP POP SWAP3 SWAP2 POP POP JUMP JUMPDEST PUSH2 0xC19 PUSH2 0x12BF JUMP JUMPDEST PUSH1 0x0 PUSH32 0x30644E72E131A029B85045B68181585D97816A916871CA8D3C208C16D87CFD47 SWAP1 POP PUSH1 0x0 DUP4 PUSH1 0x0 ADD MLOAD EQ DUP1 ISZERO PUSH2 0xC56 JUMPI POP PUSH1 0x0 DUP4 PUSH1 0x20 ADD MLOAD EQ JUMPDEST ISZERO PUSH2 0xC7A JUMPI PUSH1 0x40 MLOAD DUP1 PUSH1 0x40 ADD PUSH1 0x40 MSTORE DUP1 PUSH1 0x0 DUP2 MSTORE PUSH1 0x20 ADD PUSH1 0x0 DUP2 MSTORE POP SWAP2 POP POP PUSH2 0xCB1 JUMP JUMPDEST PUSH1 0x40 MLOAD DUP1 PUSH1 0x40 ADD PUSH1 0x40 MSTORE DUP1 DUP5 PUSH1 0x0 ADD MLOAD DUP2 MSTORE PUSH1 0x20 ADD DUP3 DUP6 PUSH1 0x20 ADD MLOAD PUSH2 0xC9F SWAP2 SWAP1 PUSH2 0x1A11 JUMP JUMPDEST DUP4 PUSH2 0xCAA SWAP2 SWAP1 PUSH2 0x1A42 JUMP JUMPDEST DUP2 MSTORE POP SWAP2 POP POP JUMPDEST SWAP2 SWAP1 POP JUMP JUMPDEST PUSH1 0x0 DUP1 PUSH1 0x4 PUSH8 0xFFFFFFFFFFFFFFFF DUP2 GT ISZERO PUSH2 0xCD4 JUMPI PUSH2 0xCD3 PUSH2 0x13B1 JUMP JUMPDEST JUMPDEST PUSH1 0x40 MLOAD SWAP1 DUP1 DUP3 MSTORE DUP1 PUSH1 0x20 MUL PUSH1 0x20 ADD DUP3 ADD PUSH1 0x40 MSTORE DUP1 ISZERO PUSH2 0xD0D JUMPI DUP2 PUSH1 0x20 ADD JUMPDEST PUSH2 0xCFA PUSH2 0x12BF JUMP JUMPDEST DUP2 MSTORE PUSH1 0x20 ADD SWAP1 PUSH1 0x1 SWAP1 SUB SWAP1 DUP2 PUSH2 0xCF2 JUMPI SWAP1 POP JUMPDEST POP SWAP1 POP PUSH1 0x0 PUSH1 0x4 PUSH8 0xFFFFFFFFFFFFFFFF DUP2 GT ISZERO PUSH2 0xD2D JUMPI PUSH2 0xD2C PUSH2 0x13B1 JUMP JUMPDEST JUMPDEST PUSH1 0x40 MLOAD SWAP1 DUP1 DUP3 MSTORE DUP1 PUSH1 0x20 MUL PUSH1 0x20 ADD DUP3 ADD PUSH1 0x40 MSTORE DUP1 ISZERO PUSH2 0xD66 JUMPI DUP2 PUSH1 0x20 ADD JUMPDEST PUSH2 0xD53 PUSH2 0x131D JUMP JUMPDEST DUP2 MSTORE PUSH1 0x20 ADD SWAP1 PUSH1 0x1 SWAP1 SUB SWAP1 DUP2 PUSH2 0xD4B JUMPI SWAP1 POP JUMPDEST POP SWAP1 POP DUP11 DUP3 PUSH1 0x0 DUP2 MLOAD DUP2 LT PUSH2 0xD7E JUMPI PUSH2 0xD7D PUSH2 0x1747 JUMP JUMPDEST JUMPDEST PUSH1 0x20 MUL PUSH1 0x20 ADD ADD DUP2 SWAP1 MSTORE POP DUP9 DUP3 PUSH1 0x1 DUP2 MLOAD DUP2 LT PUSH2 0xD9E JUMPI PUSH2 0xD9D PUSH2 0x1747 JUMP JUMPDEST JUMPDEST PUSH1 0x20 MUL PUSH1 0x20 ADD ADD DUP2 SWAP1 MSTORE POP DUP7 DUP3 PUSH1 0x2 DUP2 MLOAD DUP2 LT PUSH2 0xDBE JUMPI PUSH2 0xDBD PUSH2 0x1747 JUMP JUMPDEST JUMPDEST PUSH1 0x20 MUL PUSH1 0x20 ADD ADD DUP2 SWAP1 MSTORE POP DUP5 DUP3 PUSH1 0x3 DUP2 MLOAD DUP2 LT PUSH2 0xDDE JUMPI PUSH2 0xDDD PUSH2 0x1747 JUMP JUMPDEST JUMPDEST PUSH1 0x20 MUL PUSH1 0x20 ADD ADD DUP2 SWAP1 MSTORE POP DUP10 DUP2 PUSH1 0x0 DUP2 MLOAD DUP2 LT PUSH2 0xDFE JUMPI PUSH2 0xDFD PUSH2 0x1747 JUMP JUMPDEST JUMPDEST PUSH1 0x20 MUL PUSH1 0x20 ADD ADD DUP2 SWAP1 MSTORE POP DUP8 DUP2 PUSH1 0x1 DUP2 MLOAD DUP2 LT PUSH2 0xE1E JUMPI PUSH2 0xE1D PUSH2 0x1747 JUMP JUMPDEST JUMPDEST PUSH1 0x20 MUL PUSH1 0x20 ADD ADD DUP2 SWAP1 MSTORE POP DUP6 DUP2 PUSH1 0x2 DUP2 MLOAD DUP2 LT PUSH2 0xE3E JUMPI PUSH2 0xE3D PUSH2 0x1747 JUMP JUMPDEST JUMPDEST PUSH1 0x20 MUL PUSH1 0x20 ADD ADD DUP2 SWAP1 MSTORE POP DUP4 DUP2 PUSH1 0x3 DUP2 MLOAD DUP2 LT PUSH2 0xE5E JUMPI PUSH2 0xE5D PUSH2 0x1747 JUMP JUMPDEST JUMPDEST PUSH1 0x20 MUL PUSH1 0x20 ADD ADD DUP2 SWAP1 MSTORE POP PUSH2 0xE73 DUP3 DUP3 PUSH2 0xE83 JUMP JUMPDEST SWAP3 POP POP POP SWAP9 SWAP8 POP POP POP POP POP POP POP POP JUMP JUMPDEST PUSH1 0x0 DUP2 MLOAD DUP4 MLOAD EQ PUSH2 0xEC9 JUMPI PUSH1 0x40 MLOAD PUSH32 0x8C379A000000000000000000000000000000000000000000000000000000000 DUP2 MSTORE PUSH1 0x4 ADD PUSH2 0xEC0 SWAP1 PUSH2 0x1AC2 JUMP JUMPDEST PUSH1 0x40 MLOAD DUP1 SWAP2 SUB SWAP1 REVERT JUMPDEST PUSH1 0x0 DUP4 MLOAD SWAP1 POP PUSH1 0x0 PUSH1 0x6 DUP3 PUSH2 0xEDE SWAP2 SWAP1 PUSH2 0x1AE2 JUMP JUMPDEST SWAP1 POP PUSH1 0x0 DUP2 PUSH8 0xFFFFFFFFFFFFFFFF DUP2 GT ISZERO PUSH2 0xEFC JUMPI PUSH2 0xEFB PUSH2 0x13B1 JUMP JUMPDEST JUMPDEST PUSH1 0x40 MLOAD SWAP1 DUP1 DUP3 MSTORE DUP1 PUSH1 0x20 MUL PUSH1 0x20 ADD DUP3 ADD PUSH1 0x40 MSTORE DUP1 ISZERO PUSH2 0xF2A JUMPI DUP2 PUSH1 0x20 ADD PUSH1 0x20 DUP3 MUL DUP1 CALLDATASIZE DUP4 CALLDATACOPY DUP1 DUP3 ADD SWAP2 POP POP SWAP1 POP JUMPDEST POP SWAP1 POP PUSH1 0x0 JUMPDEST DUP4 DUP2 LT ISZERO PUSH2 0x11AF JUMPI DUP7 DUP2 DUP2 MLOAD DUP2 LT PUSH2 0xF4B JUMPI PUSH2 0xF4A PUSH2 0x1747 JUMP JUMPDEST JUMPDEST PUSH1 0x20 MUL PUSH1 0x20 ADD ADD MLOAD PUSH1 0x0 ADD MLOAD DUP3 PUSH1 0x0 PUSH1 0x6 DUP5 PUSH2 0xF67 SWAP2 SWAP1 PUSH2 0x1AE2 JUMP JUMPDEST PUSH2 0xF71 SWAP2 SWAP1 PUSH2 0x17ED JUMP JUMPDEST DUP2 MLOAD DUP2 LT PUSH2 0xF82 JUMPI PUSH2 0xF81 PUSH2 0x1747 JUMP JUMPDEST JUMPDEST PUSH1 0x20 MUL PUSH1 0x20 ADD ADD DUP2 DUP2 MSTORE POP POP DUP7 DUP2 DUP2 MLOAD DUP2 LT PUSH2 0xFA1 JUMPI PUSH2 0xFA0 PUSH2 0x1747 JUMP JUMPDEST JUMPDEST PUSH1 0x20 MUL PUSH1 0x20 ADD ADD MLOAD PUSH1 0x20 ADD MLOAD DUP3 PUSH1 0x1 PUSH1 0x6 DUP5 PUSH2 0xFBD SWAP2 SWAP1 PUSH2 0x1AE2 JUMP JUMPDEST PUSH2 0xFC7 SWAP2 SWAP1 PUSH2 0x17ED JUMP JUMPDEST DUP2 MLOAD DUP2 LT PUSH2 0xFD8 JUMPI PUSH2 0xFD7 PUSH2 0x1747 JUMP JUMPDEST JUMPDEST PUSH1 0x20 MUL PUSH1 0x20 ADD ADD DUP2 DUP2 MSTORE POP POP DUP6 DUP2 DUP2 MLOAD DUP2 LT PUSH2 0xFF7 JUMPI PUSH2 0xFF6 PUSH2 0x1747 JUMP JUMPDEST JUMPDEST PUSH1 0x20 MUL PUSH1 0x20 ADD ADD MLOAD PUSH1 0x0 ADD MLOAD PUSH1 0x0 PUSH1 0x2 DUP2 LT PUSH2 0x1016 JUMPI PUSH2 0x1015 PUSH2 0x1747 JUMP JUMPDEST JUMPDEST PUSH1 0x20 MUL ADD MLOAD DUP3 PUSH1 0x2 PUSH1 0x6 DUP5 PUSH2 0x102B SWAP2 SWAP1 PUSH2 0x1AE2 JUMP JUMPDEST PUSH2 0x1035 SWAP2 SWAP1 PUSH2 0x17ED JUMP JUMPDEST DUP2 MLOAD DUP2 LT PUSH2 0x1046 JUMPI PUSH2 0x1045 PUSH2 0x1747 JUMP JUMPDEST JUMPDEST PUSH1 0x20 MUL PUSH1 0x20 ADD ADD DUP2 DUP2 MSTORE POP POP DUP6 DUP2 DUP2 MLOAD DUP2 LT PUSH2 0x1065 JUMPI PUSH2 0x1064 PUSH2 0x1747 JUMP JUMPDEST JUMPDEST PUSH1 0x20 MUL PUSH1 0x20 ADD ADD MLOAD PUSH1 0x0 ADD MLOAD PUSH1 0x1 PUSH1 0x2 DUP2 LT PUSH2 0x1084 JUMPI PUSH2 0x1083 PUSH2 0x1747 JUMP JUMPDEST JUMPDEST PUSH1 0x20 MUL ADD MLOAD DUP3 PUSH1 0x3 PUSH1 0x6 DUP5 PUSH2 0x1099 SWAP2 SWAP1 PUSH2 0x1AE2 JUMP JUMPDEST PUSH2 0x10A3 SWAP2 SWAP1 PUSH2 0x17ED JUMP JUMPDEST DUP2 MLOAD DUP2 LT PUSH2 0x10B4 JUMPI PUSH2 0x10B3 PUSH2 0x1747 JUMP JUMPDEST JUMPDEST PUSH1 0x20 MUL PUSH1 0x20 ADD ADD DUP2 DUP2 MSTORE POP POP DUP6 DUP2 DUP2 MLOAD DUP2 LT PUSH2 0x10D3 JUMPI PUSH2 0x10D2 PUSH2 0x1747 JUMP JUMPDEST JUMPDEST PUSH1 0x20 MUL PUSH1 0x20 ADD ADD MLOAD PUSH1 0x20 ADD MLOAD PUSH1 0x0 PUSH1 0x2 DUP2 LT PUSH2 0x10F2 JUMPI PUSH2 0x10F1 PUSH2 0x1747 JUMP JUMPDEST JUMPDEST PUSH1 0x20 MUL ADD MLOAD DUP3 PUSH1 0x4 PUSH1 0x6 DUP5 PUSH2 0x1107 SWAP2 SWAP1 PUSH2 0x1AE2 JUMP JUMPDEST PUSH2 0x1111 SWAP2 SWAP1 PUSH2 0x17ED JUMP JUMPDEST DUP2 MLOAD DUP2 LT PUSH2 0x1122 JUMPI PUSH2 0x1121 PUSH2 0x1747 JUMP JUMPDEST JUMPDEST PUSH1 0x20 MUL PUSH1 0x20 ADD ADD DUP2 DUP2 MSTORE POP POP DUP6 DUP2 DUP2 MLOAD DUP2 LT PUSH2 0x1141 JUMPI PUSH2 0x1140 PUSH2 0x1747 JUMP JUMPDEST JUMPDEST PUSH1 0x20 MUL PUSH1 0x20 ADD ADD MLOAD PUSH1 0x20 ADD MLOAD PUSH1 0x1 PUSH1 0x2 DUP2 LT PUSH2 0x1160 JUMPI PUSH2 0x115F PUSH2 0x1747 JUMP JUMPDEST JUMPDEST PUSH1 0x20 MUL ADD MLOAD DUP3 PUSH1 0x5 PUSH1 0x6 DUP5 PUSH2 0x1175 SWAP2 SWAP1 PUSH2 0x1AE2 JUMP JUMPDEST PUSH2 0x117F SWAP2 SWAP1 PUSH2 0x17ED JUMP JUMPDEST DUP2 MLOAD DUP2 LT PUSH2 0x1190 JUMPI PUSH2 0x118F PUSH2 0x1747 JUMP JUMPDEST JUMPDEST PUSH1 0x20 MUL PUSH1 0x20 ADD ADD DUP2 DUP2 MSTORE POP POP DUP1 DUP1 PUSH2 0x11A7 SWAP1 PUSH2 0x17A5 JUMP JUMPDEST SWAP2 POP POP PUSH2 0xF30 JUMP JUMPDEST POP PUSH2 0x11B8 PUSH2 0x1343 JUMP JUMPDEST PUSH1 0x0 PUSH1 0x20 DUP3 PUSH1 0x20 DUP7 MUL PUSH1 0x20 DUP7 ADD PUSH1 0x8 PUSH2 0x7D0 GAS SUB STATICCALL SWAP1 POP DUP1 PUSH1 0x0 DUP2 SUB PUSH2 0x11DA JUMPI INVALID JUMPDEST POP DUP1 PUSH2 0x121B JUMPI PUSH1 0x40 MLOAD PUSH32 0x8C379A000000000000000000000000000000000000000000000000000000000 DUP2 MSTORE PUSH1 0x4 ADD PUSH2 0x1212 SWAP1 PUSH2 0x1B70 JUMP JUMPDEST PUSH1 0x40 MLOAD DUP1 SWAP2 SUB SWAP1 REVERT JUMPDEST PUSH1 0x0 DUP3 PUSH1 0x0 PUSH1 0x1 DUP2 LT PUSH2 0x1231 JUMPI PUSH2 0x1230 PUSH2 0x1747 JUMP JUMPDEST JUMPDEST PUSH1 0x20 MUL ADD MLOAD EQ ISZERO SWAP6 POP POP POP POP POP POP SWAP3 SWAP2 POP POP JUMP JUMPDEST PUSH1 0x40 MLOAD DUP1 PUSH1 0x60 ADD PUSH1 0x40 MSTORE DUP1 PUSH2 0x1258 PUSH2 0x12BF JUMP JUMPDEST DUP2 MSTORE PUSH1 0x20 ADD PUSH2 0x1265 PUSH2 0x131D JUMP JUMPDEST DUP2 MSTORE PUSH1 0x20 ADD PUSH2 0x1272 PUSH2 0x12BF JUMP JUMPDEST DUP2 MSTORE POP SWAP1 JUMP JUMPDEST PUSH1 0x40 MLOAD DUP1 PUSH1 0xA0 ADD PUSH1 0x40 MSTORE DUP1 PUSH2 0x128B PUSH2 0x12BF JUMP JUMPDEST DUP2 MSTORE PUSH1 0x20 ADD PUSH2 0x1298 PUSH2 0x131D JUMP JUMPDEST DUP2 MSTORE PUSH1 0x20 ADD PUSH2 0x12A5 PUSH2 0x131D JUMP JUMPDEST DUP2 MSTORE PUSH1 0x20 ADD PUSH2 0x12B2 PUSH2 0x131D JUMP JUMPDEST DUP2 MSTORE PUSH1 0x20 ADD PUSH1 0x60 DUP2 MSTORE POP SWAP1 JUMP JUMPDEST PUSH1 0x40 MLOAD DUP1 PUSH1 0x40 ADD PUSH1 0x40 MSTORE DUP1 PUSH1 0x0 DUP2 MSTORE PUSH1 0x20 ADD PUSH1 0x0 DUP2 MSTORE POP SWAP1 JUMP JUMPDEST PUSH1 0x40 MLOAD DUP1 PUSH1 0x60 ADD PUSH1 0x40 MSTORE DUP1 PUSH1 0x3 SWAP1 PUSH1 0x20 DUP3 MUL DUP1 CALLDATASIZE DUP4 CALLDATACOPY DUP1 DUP3 ADD SWAP2 POP POP SWAP1 POP POP SWAP1 JUMP JUMPDEST PUSH1 0x40 MLOAD DUP1 PUSH1 0x80 ADD PUSH1 0x40 MSTORE DUP1 PUSH1 0x4 SWAP1 PUSH1 0x20 DUP3 MUL DUP1 CALLDATASIZE DUP4 CALLDATACOPY DUP1 DUP3 ADD SWAP2 POP POP SWAP1 POP POP SWAP1 JUMP JUMPDEST PUSH1 0x40 MLOAD DUP1 PUSH1 0x40 ADD PUSH1 0x40 MSTORE DUP1 PUSH2 0x1330 PUSH2 0x1365 JUMP JUMPDEST DUP2 MSTORE PUSH1 0x20 ADD PUSH2 0x133D PUSH2 0x1365 JUMP JUMPDEST DUP2 MSTORE POP SWAP1 JUMP JUMPDEST PUSH1 0x40 MLOAD DUP1 PUSH1 0x20 ADD PUSH1 0x40 MSTORE DUP1 PUSH1 0x1 SWAP1 PUSH1 0x20 DUP3 MUL DUP1 CALLDATASIZE DUP4 CALLDATACOPY DUP1 DUP3 ADD SWAP2 POP POP SWAP1 POP POP SWAP1 JUMP JUMPDEST PUSH1 0x40 MLOAD DUP1 PUSH1 0x40 ADD PUSH1 0x40 MSTORE DUP1 PUSH1 0x2 SWAP1 PUSH1 0x20 DUP3 MUL DUP1 CALLDATASIZE DUP4 CALLDATACOPY DUP1 DUP3 ADD SWAP2 POP POP SWAP1 POP POP SWAP1 JUMP JUMPDEST PUSH1 0x0 PUSH1 0x40 MLOAD SWAP1 POP SWAP1 JUMP JUMPDEST PUSH1 0x0 DUP1 REVERT JUMPDEST PUSH1 0x0 DUP1 REVERT JUMPDEST PUSH1 0x0 DUP1 REVERT JUMPDEST PUSH1 0x0 PUSH1 0x1F NOT PUSH1 0x1F DUP4 ADD AND SWAP1 POP SWAP2 SWAP1 POP JUMP JUMPDEST PUSH32 0x4E487B7100000000000000000000000000000000000000000000000000000000 PUSH1 0x0 MSTORE PUSH1 0x41 PUSH1 0x4 MSTORE PUSH1 0x24 PUSH1 0x0 REVERT JUMPDEST PUSH2 0x13E9 DUP3 PUSH2 0x13A0 JUMP JUMPDEST DUP2 ADD DUP2 DUP2 LT PUSH8 0xFFFFFFFFFFFFFFFF DUP3 GT OR ISZERO PUSH2 0x1408 JUMPI PUSH2 0x1407 PUSH2 0x13B1 JUMP JUMPDEST JUMPDEST DUP1 PUSH1 0x40 MSTORE POP POP POP JUMP JUMPDEST PUSH1 0x0 PUSH2 0x141B PUSH2 0x1387 JUMP JUMPDEST SWAP1 POP PUSH2 0x1427 DUP3 DUP3 PUSH2 0x13E0 JUMP JUMPDEST SWAP2 SWAP1 POP JUMP JUMPDEST PUSH1 0x0 PUSH8 0xFFFFFFFFFFFFFFFF DUP3 GT ISZERO PUSH2 0x1447 JUMPI PUSH2 0x1446 PUSH2 0x13B1 JUMP JUMPDEST JUMPDEST PUSH1 0x20 DUP3 MUL SWAP1 POP SWAP2 SWAP1 POP JUMP JUMPDEST PUSH1 0x0 DUP1 REVERT JUMPDEST PUSH1 0x0 DUP2 SWAP1 POP SWAP2 SWAP1 POP JUMP JUMPDEST PUSH2 0x146A DUP2 PUSH2 0x1457 JUMP JUMPDEST DUP2 EQ PUSH2 0x1475 JUMPI PUSH1 0x0 DUP1 REVERT JUMPDEST POP JUMP JUMPDEST PUSH1 0x0 DUP2 CALLDATALOAD SWAP1 POP PUSH2 0x1487 DUP2 PUSH2 0x1461 JUMP JUMPDEST SWAP3 SWAP2 POP POP JUMP JUMPDEST PUSH1 0x0 PUSH2 0x14A0 PUSH2 0x149B DUP5 PUSH2 0x142C JUMP JUMPDEST PUSH2 0x1411 JUMP JUMPDEST SWAP1 POP DUP1 PUSH1 0x20 DUP5 MUL DUP4 ADD DUP6 DUP2 GT ISZERO PUSH2 0x14BA JUMPI PUSH2 0x14B9 PUSH2 0x1452 JUMP JUMPDEST JUMPDEST DUP4 JUMPDEST DUP2 DUP2 LT ISZERO PUSH2 0x14E3 JUMPI DUP1 PUSH2 0x14CF DUP9 DUP3 PUSH2 0x1478 JUMP JUMPDEST DUP5 MSTORE PUSH1 0x20 DUP5 ADD SWAP4 POP POP PUSH1 0x20 DUP2 ADD SWAP1 POP PUSH2 0x14BC JUMP JUMPDEST POP POP POP SWAP4 SWAP3 POP POP POP JUMP JUMPDEST PUSH1 0x0 DUP3 PUSH1 0x1F DUP4 ADD SLT PUSH2 0x1502 JUMPI PUSH2 0x1501 PUSH2 0x139B JUMP JUMPDEST JUMPDEST PUSH1 0x2 PUSH2 0x150F DUP5 DUP3 DUP6 PUSH2 0x148D JUMP JUMPDEST SWAP2 POP POP SWAP3 SWAP2 POP POP JUMP JUMPDEST PUSH1 0x0 PUSH8 0xFFFFFFFFFFFFFFFF DUP3 GT ISZERO PUSH2 0x1533 JUMPI PUSH2 0x1532 PUSH2 0x13B1 JUMP JUMPDEST JUMPDEST PUSH1 0x20 DUP3 MUL SWAP1 POP SWAP2 SWAP1 POP JUMP JUMPDEST PUSH1 0x0 PUSH2 0x1551 PUSH2 0x154C DUP5 PUSH2 0x1518 JUMP JUMPDEST PUSH2 0x1411 JUMP JUMPDEST SWAP1 POP DUP1 PUSH1 0x40 DUP5 MUL DUP4 ADD DUP6 DUP2 GT ISZERO PUSH2 0x156B JUMPI PUSH2 0x156A PUSH2 0x1452 JUMP JUMPDEST JUMPDEST DUP4 JUMPDEST DUP2 DUP2 LT ISZERO PUSH2 0x1594 JUMPI DUP1 PUSH2 0x1580 DUP9 DUP3 PUSH2 0x14ED JUMP JUMPDEST DUP5 MSTORE PUSH1 0x20 DUP5 ADD SWAP4 POP POP PUSH1 0x40 DUP2 ADD SWAP1 POP PUSH2 0x156D JUMP JUMPDEST POP POP POP SWAP4 SWAP3 POP POP POP JUMP JUMPDEST PUSH1 0x0 DUP3 PUSH1 0x1F DUP4 ADD SLT PUSH2 0x15B3 JUMPI PUSH2 0x15B2 PUSH2 0x139B JUMP JUMPDEST JUMPDEST PUSH1 0x2 PUSH2 0x15C0 DUP5 DUP3 DUP6 PUSH2 0x153E JUMP JUMPDEST SWAP2 POP POP SWAP3 SWAP2 POP POP JUMP JUMPDEST PUSH1 0x0 PUSH8 0xFFFFFFFFFFFFFFFF DUP3 GT ISZERO PUSH2 0x15E4 JUMPI PUSH2 0x15E3 PUSH2 0x13B1 JUMP JUMPDEST JUMPDEST PUSH1 0x20 DUP3 MUL SWAP1 POP PUSH1 0x20 DUP2 ADD SWAP1 POP SWAP2 SWAP1 POP JUMP JUMPDEST PUSH1 0x0 PUSH2 0x1608 PUSH2 0x1603 DUP5 PUSH2 0x15C9 JUMP JUMPDEST PUSH2 0x1411 JUMP JUMPDEST SWAP1 POP DUP1 DUP4 DUP3 MSTORE PUSH1 0x20 DUP3 ADD SWAP1 POP PUSH1 0x20 DUP5 MUL DUP4 ADD DUP6 DUP2 GT ISZERO PUSH2 0x162B JUMPI PUSH2 0x162A PUSH2 0x1452 JUMP JUMPDEST JUMPDEST DUP4 JUMPDEST DUP2 DUP2 LT ISZERO PUSH2 0x1654 JUMPI DUP1 PUSH2 0x1640 DUP9 DUP3 PUSH2 0x1478 JUMP JUMPDEST DUP5 MSTORE PUSH1 0x20 DUP5 ADD SWAP4 POP POP PUSH1 0x20 DUP2 ADD SWAP1 POP PUSH2 0x162D JUMP JUMPDEST POP POP POP SWAP4 SWAP3 POP POP POP JUMP JUMPDEST PUSH1 0x0 DUP3 PUSH1 0x1F DUP4 ADD SLT PUSH2 0x1673 JUMPI PUSH2 0x1672 PUSH2 0x139B JUMP JUMPDEST JUMPDEST DUP2 CALLDATALOAD PUSH2 0x1683 DUP5 DUP3 PUSH1 0x20 DUP7 ADD PUSH2 0x15F5 JUMP JUMPDEST SWAP2 POP POP SWAP3 SWAP2 POP POP JUMP JUMPDEST PUSH1 0x0 DUP1 PUSH1 0x0 DUP1 PUSH2 0x120 DUP6 DUP8 SUB SLT ISZERO PUSH2 0x16A7 JUMPI PUSH2 0x16A6 PUSH2 0x1391 JUMP JUMPDEST JUMPDEST PUSH1 0x0 PUSH2 0x16B5 DUP8 DUP3 DUP9 ADD PUSH2 0x14ED JUMP JUMPDEST SWAP5 POP POP PUSH1 0x40 PUSH2 0x16C6 DUP8 DUP3 DUP9 ADD PUSH2 0x159E JUMP JUMPDEST SWAP4 POP POP PUSH1 0xC0 PUSH2 0x16D7 DUP8 DUP3 DUP9 ADD PUSH2 0x14ED JUMP JUMPDEST SWAP3 POP POP PUSH2 0x100 DUP6 ADD CALLDATALOAD PUSH8 0xFFFFFFFFFFFFFFFF DUP2 GT ISZERO PUSH2 0x16F9 JUMPI PUSH2 0x16F8 PUSH2 0x1396 JUMP JUMPDEST JUMPDEST PUSH2 0x1705 DUP8 DUP3 DUP9 ADD PUSH2 0x165E JUMP JUMPDEST SWAP2 POP POP SWAP3 SWAP6 SWAP2 SWAP5 POP SWAP3 POP JUMP JUMPDEST PUSH1 0x0 DUP2 ISZERO ISZERO SWAP1 POP SWAP2 SWAP1 POP JUMP JUMPDEST PUSH2 0x1726 DUP2 PUSH2 0x1711 JUMP JUMPDEST DUP3 MSTORE POP POP JUMP JUMPDEST PUSH1 0x0 PUSH1 0x20 DUP3 ADD SWAP1 POP PUSH2 0x1741 PUSH1 0x0 DUP4 ADD DUP5 PUSH2 0x171D JUMP JUMPDEST SWAP3 SWAP2 POP POP JUMP JUMPDEST PUSH32 0x4E487B7100000000000000000000000000000000000000000000000000000000 PUSH1 0x0 MSTORE PUSH1 0x32 PUSH1 0x4 MSTORE PUSH1 0x24 PUSH1 0x0 REVERT JUMPDEST PUSH32 0x4E487B7100000000000000000000000000000000000000000000000000000000 PUSH1 0x0 MSTORE PUSH1 0x11 PUSH1 0x4 MSTORE PUSH1 0x24 PUSH1 0x0 REVERT JUMPDEST PUSH1 0x0 PUSH2 0x17B0 DUP3 PUSH2 0x1457 JUMP JUMPDEST SWAP2 POP PUSH32 0xFFFFFFFFFFFFFFFFFFFFFFFFFFFFFFFFFFFFFFFFFFFFFFFFFFFFFFFFFFFFFFFF DUP3 SUB PUSH2 0x17E2 JUMPI PUSH2 0x17E1 PUSH2 0x1776 JUMP JUMPDEST JUMPDEST PUSH1 0x1 DUP3 ADD SWAP1 POP SWAP2 SWAP1 POP JUMP JUMPDEST PUSH1 0x0 PUSH2 0x17F8 DUP3 PUSH2 0x1457 JUMP JUMPDEST SWAP2 POP PUSH2 0x1803 DUP4 PUSH2 0x1457 JUMP JUMPDEST SWAP3 POP DUP3 DUP3 ADD SWAP1 POP DUP1 DUP3 GT ISZERO PUSH2 0x181B JUMPI PUSH2 0x181A PUSH2 0x1776 JUMP JUMPDEST JUMPDEST SWAP3 SWAP2 POP POP JUMP JUMPDEST PUSH1 0x0 DUP3 DUP3 MSTORE PUSH1 0x20 DUP3 ADD SWAP1 POP SWAP3 SWAP2 POP POP JUMP JUMPDEST PUSH32 0x76657269666965722D6261642D696E7075740000000000000000000000000000 PUSH1 0x0 DUP3 ADD MSTORE POP JUMP JUMPDEST PUSH1 0x0 PUSH2 0x1868 PUSH1 0x12 DUP4 PUSH2 0x1821 JUMP JUMPDEST SWAP2 POP PUSH2 0x1873 DUP3 PUSH2 0x1832 JUMP JUMPDEST PUSH1 0x20 DUP3 ADD SWAP1 POP SWAP2 SWAP1 POP JUMP JUMPDEST PUSH1 0x0 PUSH1 0x20 DUP3 ADD SWAP1 POP DUP2 DUP2 SUB PUSH1 0x0 DUP4 ADD MSTORE PUSH2 0x1897 DUP2 PUSH2 0x185B JUMP JUMPDEST SWAP1 POP SWAP2 SWAP1 POP JUMP JUMPDEST PUSH32 0x76657269666965722D6774652D736E61726B2D7363616C61722D6669656C6400 PUSH1 0x0 DUP3 ADD MSTORE POP JUMP JUMPDEST PUSH1 0x0 PUSH2 0x18D4 PUSH1 0x1F DUP4 PUSH2 0x1821 JUMP JUMPDEST SWAP2 POP PUSH2 0x18DF DUP3 PUSH2 0x189E JUMP JUMPDEST PUSH1 0x20 DUP3 ADD SWAP1 POP SWAP2 SWAP1 POP JUMP JUMPDEST PUSH1 0x0 PUSH1 0x20 DUP3 ADD SWAP1 POP DUP2 DUP2 SUB PUSH1 0x0 DUP4 ADD MSTORE PUSH2 0x1903 DUP2 PUSH2 0x18C7 JUMP JUMPDEST SWAP1 POP SWAP2 SWAP1 POP JUMP JUMPDEST PUSH32 0x70616972696E672D6D756C2D6661696C65640000000000000000000000000000 PUSH1 0x0 DUP3 ADD MSTORE POP JUMP JUMPDEST PUSH1 0x0 PUSH2 0x1940 PUSH1 0x12 DUP4 PUSH2 0x1821 JUMP JUMPDEST SWAP2 POP PUSH2 0x194B DUP3 PUSH2 0x190A JUMP JUMPDEST PUSH1 0x20 DUP3 ADD SWAP1 POP SWAP2 SWAP1 POP JUMP JUMPDEST PUSH1 0x0 PUSH1 0x20 DUP3 ADD SWAP1 POP DUP2 DUP2 SUB PUSH1 0x0 DUP4 ADD MSTORE PUSH2 0x196F DUP2 PUSH2 0x1933 JUMP JUMPDEST SWAP1 POP SWAP2 SWAP1 POP JUMP JUMPDEST PUSH32 0x70616972696E672D6164642D6661696C65640000000000000000000000000000 PUSH1 0x0 DUP3 ADD MSTORE POP JUMP JUMPDEST PUSH1 0x0 PUSH2 0x19AC PUSH1 0x12 DUP4 PUSH2 0x1821 JUMP JUMPDEST SWAP2 POP PUSH2 0x19B7 DUP3 PUSH2 0x1976 JUMP JUMPDEST PUSH1 0x20 DUP3 ADD SWAP1 POP SWAP2 SWAP1 POP JUMP JUMPDEST PUSH1 0x0 PUSH1 0x20 DUP3 ADD SWAP1 POP DUP2 DUP2 SUB PUSH1 0x0 DUP4 ADD MSTORE PUSH2 0x19DB DUP2 PUSH2 0x199F JUMP JUMPDEST SWAP1 POP SWAP2 SWAP1 POP JUMP JUMPDEST PUSH32 0x4E487B7100000000000000000000000000000000000000000000000000000000 PUSH1 0x0 MSTORE PUSH1 0x12 PUSH1 0x4 MSTORE PUSH1 0x24 PUSH1 0x0 REVERT JUMPDEST PUSH1 0x0 PUSH2 0x1A1C DUP3 PUSH2 0x1457 JUMP JUMPDEST SWAP2 POP PUSH2 0x1A27 DUP4 PUSH2 0x1457 JUMP JUMPDEST SWAP3 POP DUP3 PUSH2 0x1A37 JUMPI PUSH2 0x1A36 PUSH2 0x19E2 JUMP JUMPDEST JUMPDEST DUP3 DUP3 MOD SWAP1 POP SWAP3 SWAP2 POP POP JUMP JUMPDEST PUSH1 0x0 PUSH2 0x1A4D DUP3 PUSH2 0x1457 JUMP JUMPDEST SWAP2 POP PUSH2 0x1A58 DUP4 PUSH2 0x1457 JUMP JUMPDEST SWAP3 POP DUP3 DUP3 SUB SWAP1 POP DUP2 DUP2 GT ISZERO PUSH2 0x1A70 JUMPI PUSH2 0x1A6F PUSH2 0x1776 JUMP JUMPDEST JUMPDEST SWAP3 SWAP2 POP POP JUMP JUMPDEST PUSH32 0x70616972696E672D6C656E677468732D6661696C656400000000000000000000 PUSH1 0x0 DUP3 ADD MSTORE POP JUMP JUMPDEST PUSH1 0x0 PUSH2 0x1AAC PUSH1 0x16 DUP4 PUSH2 0x1821 JUMP JUMPDEST SWAP2 POP PUSH2 0x1AB7 DUP3 PUSH2 0x1A76 JUMP JUMPDEST PUSH1 0x20 DUP3 ADD SWAP1 POP SWAP2 SWAP1 POP JUMP JUMPDEST PUSH1 0x0 PUSH1 0x20 DUP3 ADD SWAP1 POP DUP2 DUP2 SUB PUSH1 0x0 DUP4 ADD MSTORE PUSH2 0x1ADB DUP2 PUSH2 0x1A9F JUMP JUMPDEST SWAP1 POP SWAP2 SWAP1 POP JUMP JUMPDEST PUSH1 0x0 PUSH2 0x1AED DUP3 PUSH2 0x1457 JUMP JUMPDEST SWAP2 POP PUSH2 0x1AF8 DUP4 PUSH2 0x1457 JUMP JUMPDEST SWAP3 POP DUP3 DUP3 MUL PUSH2 0x1B06 DUP2 PUSH2 0x1457 JUMP JUMPDEST SWAP2 POP DUP3 DUP3 DIV DUP5 EQ DUP4 ISZERO OR PUSH2 0x1B1D JUMPI PUSH2 0x1B1C PUSH2 0x1776 JUMP JUMPDEST JUMPDEST POP SWAP3 SWAP2 POP POP JUMP JUMPDEST PUSH32 0x70616972696E672D6F70636F64652D6661696C65640000000000000000000000 PUSH1 0x0 DUP3 ADD MSTORE POP JUMP JUMPDEST PUSH1 0x0 PUSH2 0x1B5A PUSH1 0x15 DUP4 PUSH2 0x1821 JUMP JUMPDEST SWAP2 POP PUSH2 0x1B65 DUP3 PUSH2 0x1B24 JUMP JUMPDEST PUSH1 0x20 DUP3 ADD SWAP1 POP SWAP2 SWAP1 POP JUMP JUMPDEST PUSH1 0x0 PUSH1 0x20 DUP3 ADD SWAP1 POP DUP2 DUP2 SUB PUSH1 0x0 DUP4 ADD MSTORE PUSH2 0x1B89 DUP2 PUSH2 0x1B4D JUMP JUMPDEST SWAP1 POP SWAP2 SWAP1 POP JUMP INVALID LOG2 PUSH5 0x6970667358 0x22 SLT KECCAK256 SWAP13 0xFB 0xC4 CALLER 0xBA 0xAC PUSH18 0xBD4CD758586AEC4BBEA674BA80B585A4B3A9 PUSH29 0x2382AFDDE27564736F6C63430008120033000000000000000000000000 "},"methodIdentifiers":{"verifyProof(uint256[2],uint256[2][2],uint256[2],uint256[])":"c32e370e"}}}}}